{
  "_format": "hh-sol-artifact-1",
  "contractName": "AgreementFactory",
  "sourceName": "contracts/agreements/AgreementFactory.sol",
  "abi": [
    {
      "anonymous": false,
      "inputs": [
        {
          "indexed": true,
          "internalType": "address",
          "name": "agreementAddress",
          "type": "address"
        },
        {
          "indexed": true,
          "internalType": "address",
          "name": "agreementImplementation",
          "type": "address"
        }
      ],
      "name": "AgreementCreated",
      "type": "event"
    },
    {
      "anonymous": false,
      "inputs": [
        {
          "indexed": true,
          "internalType": "address",
          "name": "agreementImplementation",
          "type": "address"
        }
      ],
      "name": "AgreementImplementationChanged",
      "type": "event"
    },
    {
      "anonymous": false,
      "inputs": [
        {
          "indexed": false,
          "internalType": "uint8",
          "name": "version",
          "type": "uint8"
        }
      ],
      "name": "Initialized",
      "type": "event"
    },
    {
      "anonymous": false,
      "inputs": [
        {
          "indexed": true,
          "internalType": "address",
          "name": "previousOwner",
          "type": "address"
        },
        {
          "indexed": true,
          "internalType": "address",
          "name": "newOwner",
          "type": "address"
        }
      ],
      "name": "OwnershipTransferred",
      "type": "event"
    },
    {
      "inputs": [],
      "name": "collectFee",
      "outputs": [],
      "stateMutability": "nonpayable",
      "type": "function"
    },
    {
      "inputs": [
        {
          "internalType": "string",
          "name": "_dataHash",
          "type": "string"
        },
        {
          "components": [
            {
              "internalType": "address",
              "name": "account",
              "type": "address"
            },
            {
              "internalType": "bool",
              "name": "isAdmin",
              "type": "bool"
            },
            {
              "internalType": "uint256",
              "name": "balance",
              "type": "uint256"
            }
          ],
          "internalType": "struct AgreementFactory.Holder[]",
          "name": "holders",
          "type": "tuple[]"
        },
        {
          "internalType": "address",
          "name": "trackedTokenAddress",
          "type": "address"
        }
      ],
      "name": "create",
      "outputs": [],
      "stateMutability": "payable",
      "type": "function"
    },
    {
      "inputs": [],
      "name": "getAgreementImplementation",
      "outputs": [
        {
          "internalType": "address",
          "name": "",
          "type": "address"
        }
      ],
      "stateMutability": "view",
      "type": "function"
    },
    {
      "inputs": [
        {
          "internalType": "address",
          "name": "initialImplementation",
          "type": "address"
        },
        {
          "internalType": "address",
          "name": "_feeManager",
          "type": "address"
        },
        {
          "internalType": "address",
          "name": "_lendingContract",
          "type": "address"
        },
        {
          "internalType": "address",
          "name": "_cyclePreventionRegistry",
          "type": "address"
        }
      ],
      "name": "initialize",
      "outputs": [],
      "stateMutability": "nonpayable",
      "type": "function"
    },
    {
      "inputs": [],
      "name": "owner",
      "outputs": [
        {
          "internalType": "address",
          "name": "",
          "type": "address"
        }
      ],
      "stateMutability": "view",
      "type": "function"
    },
    {
      "inputs": [],
      "name": "renounceOwnership",
      "outputs": [],
      "stateMutability": "nonpayable",
      "type": "function"
    },
    {
      "inputs": [
        {
          "internalType": "address",
          "name": "agreementImplementation",
          "type": "address"
        }
      ],
      "name": "setAgreementImplementation",
      "outputs": [],
      "stateMutability": "nonpayable",
      "type": "function"
    },
    {
      "inputs": [
        {
          "internalType": "address",
          "name": "newOwner",
          "type": "address"
        }
      ],
      "name": "transferOwnership",
      "outputs": [],
      "stateMutability": "nonpayable",
      "type": "function"
    }
  ],
  "bytecode": "0x608060405234801561001057600080fd5b50612a62806100206000396000f3fe608060405260043610620000865760003560e01c8063af92bc631162000055578063af92bc631462000123578063d4d5d32a1462000153578063f2fde38b146200016d578063f8c8765e146200019b5762000086565b80631d751f9d146200008b578063715018a614620000ab5780638da5cb5b14620000c557806391ff6e9514620000f5575b600080fd5b620000a96004803603810190620000a39190620010f8565b620001c9565b005b348015620000b857600080fd5b50620000c362000472565b005b348015620000d257600080fd5b50620000dd62000503565b604051620000ec9190620011a3565b60405180910390f35b3480156200010257600080fd5b506200012160048036038101906200011b9190620011c0565b6200052d565b005b3480156200013057600080fd5b506200013b620006f6565b6040516200014a9190620011a3565b60405180910390f35b3480156200016057600080fd5b506200016b62000720565b005b3480156200017a57600080fd5b50620001996004803603810190620001939190620011c0565b62000825565b005b348015620001a857600080fd5b50620001c76004803603810190620001c19190620011f2565b62000928565b005b606560009054906101000a900473ffffffffffffffffffffffffffffffffffffffff1673ffffffffffffffffffffffffffffffffffffffff1663dce0b4e46040518163ffffffff1660e01b8152600401602060405180830381865afa15801562000237573d6000803e3d6000fd5b505050506040513d601f19601f820116820180604052508101906200025d91906200127b565b341015620002a2576040517f08c379a000000000000000000000000000000000000000000000000000000000815260040162000299906200130e565b60405180910390fd5b6000633816136e60e01b848484606560009054906101000a900473ffffffffffffffffffffffffffffffffffffffff16606760009054906101000a900473ffffffffffffffffffffffffffffffffffffffff16606860009054906101000a900473ffffffffffffffffffffffffffffffffffffffff166040516024016200032f9695949392919062001555565b604051602081830303815290604052907bffffffffffffffffffffffffffffffffffffffffffffffffffffffff19166020820180517bffffffffffffffffffffffffffffffffffffffffffffffffffffffff838183161783525050505090506000606660009054906101000a900473ffffffffffffffffffffffffffffffffffffffff1682604051620003c29062000d48565b620003cf9291906200162d565b604051809103906000f080158015620003ec573d6000803e3d6000fd5b509050606660009054906101000a900473ffffffffffffffffffffffffffffffffffffffff1673ffffffffffffffffffffffffffffffffffffffff168173ffffffffffffffffffffffffffffffffffffffff167f3178ea54b202e279700e6dcdc03e5e9f454ceef79b2d55705b43e47913baa29760405160405180910390a35050505050565b6200047c62000a96565b73ffffffffffffffffffffffffffffffffffffffff166200049c62000503565b73ffffffffffffffffffffffffffffffffffffffff1614620004f5576040517f08c379a0000000000000000000000000000000000000000000000000000000008152600401620004ec90620016b1565b60405180910390fd5b62000501600062000a9e565b565b6000603360009054906101000a900473ffffffffffffffffffffffffffffffffffffffff16905090565b6200053762000a96565b73ffffffffffffffffffffffffffffffffffffffff166200055762000503565b73ffffffffffffffffffffffffffffffffffffffff1614620005b0576040517f08c379a0000000000000000000000000000000000000000000000000000000008152600401620005a790620016b1565b60405180910390fd5b600073ffffffffffffffffffffffffffffffffffffffff168173ffffffffffffffffffffffffffffffffffffffff160362000622576040517f08c379a0000000000000000000000000000000000000000000000000000000008152600401620006199062001723565b60405180910390fd5b6200062d8162000b64565b6200066f576040517f08c379a0000000000000000000000000000000000000000000000000000000008152600401620006669062001795565b60405180910390fd5b80606660006101000a81548173ffffffffffffffffffffffffffffffffffffffff021916908373ffffffffffffffffffffffffffffffffffffffff1602179055508073ffffffffffffffffffffffffffffffffffffffff167f3872a4d2bb55e7f2b8b360575927ac339ed4bf09ee5a9fd6492f91f2bd8f4e5a60405160405180910390a250565b6000606660009054906101000a900473ffffffffffffffffffffffffffffffffffffffff16905090565b606560009054906101000a900473ffffffffffffffffffffffffffffffffffffffff1673ffffffffffffffffffffffffffffffffffffffff163373ffffffffffffffffffffffffffffffffffffffff1614620007b3576040517f08c379a0000000000000000000000000000000000000000000000000000000008152600401620007aa9062001807565b60405180910390fd5b6000606560009054906101000a900473ffffffffffffffffffffffffffffffffffffffff1690508073ffffffffffffffffffffffffffffffffffffffff166108fc479081150290604051600060405180830381858888f1935050505015801562000821573d6000803e3d6000fd5b5050565b6200082f62000a96565b73ffffffffffffffffffffffffffffffffffffffff166200084f62000503565b73ffffffffffffffffffffffffffffffffffffffff1614620008a8576040517f08c379a00000000000000000000000000000000000000000000000000000000081526004016200089f90620016b1565b60405180910390fd5b600073ffffffffffffffffffffffffffffffffffffffff168173ffffffffffffffffffffffffffffffffffffffff16036200091a576040517f08c379a000000000000000000000000000000000000000000000000000000000815260040162000911906200189f565b60405180910390fd5b620009258162000a9e565b50565b600062000936600162000b87565b905080156200095b576001600060016101000a81548160ff0219169083151502179055505b6200096562000c82565b62000970856200052d565b83606560006101000a81548173ffffffffffffffffffffffffffffffffffffffff021916908373ffffffffffffffffffffffffffffffffffffffff16021790555082606760006101000a81548173ffffffffffffffffffffffffffffffffffffffff021916908373ffffffffffffffffffffffffffffffffffffffff16021790555081606860006101000a81548173ffffffffffffffffffffffffffffffffffffffff021916908373ffffffffffffffffffffffffffffffffffffffff160217905550801562000a8f5760008060016101000a81548160ff0219169083151502179055507f7f26b83ff96e1f2b6a682f133852f6798a09c465da95921460cefb3847402498600160405162000a86919062001911565b60405180910390a15b5050505050565b600033905090565b6000603360009054906101000a900473ffffffffffffffffffffffffffffffffffffffff16905081603360006101000a81548173ffffffffffffffffffffffffffffffffffffffff021916908373ffffffffffffffffffffffffffffffffffffffff1602179055508173ffffffffffffffffffffffffffffffffffffffff168173ffffffffffffffffffffffffffffffffffffffff167f8be0079c531659141344cd1fd0a4f28419497f9722a3daafe3b4186f6b6457e060405160405180910390a35050565b6000808273ffffffffffffffffffffffffffffffffffffffff163b119050919050565b60008060019054906101000a900460ff161562000c065760018260ff1614801562000bba575062000bb83062000b64565b155b62000bfc576040517f08c379a000000000000000000000000000000000000000000000000000000000815260040162000bf390620019a4565b60405180910390fd5b6000905062000c7d565b8160ff1660008054906101000a900460ff1660ff161062000c5e576040517f08c379a000000000000000000000000000000000000000000000000000000000815260040162000c5590620019a4565b60405180910390fd5b816000806101000a81548160ff021916908360ff160217905550600190505b919050565b600060019054906101000a900460ff1662000cd4576040517f08c379a000000000000000000000000000000000000000000000000000000000815260040162000ccb9062001a3c565b60405180910390fd5b62000cde62000ce0565b565b600060019054906101000a900460ff1662000d32576040517f08c379a000000000000000000000000000000000000000000000000000000000815260040162000d299062001a3c565b60405180910390fd5b62000d4662000d4062000a96565b62000a9e565b565b610fce8062001a5f83390190565b6000604051905090565b600080fd5b600080fd5b600080fd5b600080fd5b6000601f19601f8301169050919050565b7f4e487b7100000000000000000000000000000000000000000000000000000000600052604160045260246000fd5b62000dbf8262000d74565b810181811067ffffffffffffffff8211171562000de15762000de062000d85565b5b80604052505050565b600062000df662000d56565b905062000e04828262000db4565b919050565b600067ffffffffffffffff82111562000e275762000e2662000d85565b5b62000e328262000d74565b9050602081019050919050565b82818337600083830152505050565b600062000e6562000e5f8462000e09565b62000dea565b90508281526020810184848401111562000e845762000e8362000d6f565b5b62000e9184828562000e3f565b509392505050565b600082601f83011262000eb15762000eb062000d6a565b5b813562000ec384826020860162000e4e565b91505092915050565b600067ffffffffffffffff82111562000eea5762000ee962000d85565b5b602082029050602081019050919050565b600080fd5b600080fd5b600073ffffffffffffffffffffffffffffffffffffffff82169050919050565b600062000f328262000f05565b9050919050565b62000f448162000f25565b811462000f5057600080fd5b50565b60008135905062000f648162000f39565b92915050565b60008115159050919050565b62000f818162000f6a565b811462000f8d57600080fd5b50565b60008135905062000fa18162000f76565b92915050565b6000819050919050565b62000fbc8162000fa7565b811462000fc857600080fd5b50565b60008135905062000fdc8162000fb1565b92915050565b60006060828403121562000ffb5762000ffa62000f00565b5b62001007606062000dea565b90506000620010198482850162000f53565b60008301525060206200102f8482850162000f90565b6020830152506040620010458482850162000fcb565b60408301525092915050565b600062001068620010628462000ecc565b62000dea565b905080838252602082019050606084028301858111156200108e576200108d62000efb565b5b835b81811015620010bb5780620010a6888262000fe2565b84526020840193505060608101905062001090565b5050509392505050565b600082601f830112620010dd57620010dc62000d6a565b5b8135620010ef84826020860162001051565b91505092915050565b60008060006060848603121562001114576200111362000d60565b5b600084013567ffffffffffffffff81111562001135576200113462000d65565b5b620011438682870162000e99565b935050602084013567ffffffffffffffff81111562001167576200116662000d65565b5b6200117586828701620010c5565b9250506040620011888682870162000f53565b9150509250925092565b6200119d8162000f25565b82525050565b6000602082019050620011ba600083018462001192565b92915050565b600060208284031215620011d957620011d862000d60565b5b6000620011e98482850162000f53565b91505092915050565b600080600080608085870312156200120f576200120e62000d60565b5b60006200121f8782880162000f53565b9450506020620012328782880162000f53565b9350506040620012458782880162000f53565b9250506060620012588782880162000f53565b91505092959194509250565b600081519050620012758162000fb1565b92915050565b60006020828403121562001294576200129362000d60565b5b6000620012a48482850162001264565b91505092915050565b600082825260208201905092915050565b7f496e73756666696369656e742066656500000000000000000000000000000000600082015250565b6000620012f6601083620012ad565b91506200130382620012be565b602082019050919050565b600060208201905081810360008301526200132981620012e7565b9050919050565b600081519050919050565b60005b838110156200135b5780820151818401526020810190506200133e565b838111156200136b576000848401525b50505050565b60006200137e8262001330565b6200138a8185620012ad565b93506200139c8185602086016200133b565b620013a78162000d74565b840191505092915050565b600081519050919050565b600082825260208201905092915050565b6000819050602082019050919050565b620013e98162000f25565b82525050565b620013fa8162000f6a565b82525050565b6200140b8162000fa7565b82525050565b606082016000820151620014296000850182620013de565b5060208201516200143e6020850182620013ef565b50604082015162001453604085018262001400565b50505050565b600062001467838362001411565b60608301905092915050565b6000602082019050919050565b60006200148d82620013b2565b620014998185620013bd565b9350620014a683620013ce565b8060005b83811015620014dd578151620014c1888262001459565b9750620014ce8362001473565b925050600181019050620014aa565b5085935050505092915050565b6000819050919050565b6000620015156200150f620015098462000f05565b620014ea565b62000f05565b9050919050565b60006200152982620014f4565b9050919050565b60006200153d826200151c565b9050919050565b6200154f8162001530565b82525050565b600060c082019050818103600083015262001571818962001371565b9050818103602083015262001587818862001480565b905062001598604083018762001192565b620015a7606083018662001544565b620015b6608083018562001192565b620015c560a083018462001192565b979650505050505050565b600081519050919050565b600082825260208201905092915050565b6000620015f982620015d0565b620016058185620015db565b9350620016178185602086016200133b565b620016228162000d74565b840191505092915050565b600060408201905062001644600083018562001192565b8181036020830152620016588184620015ec565b90509392505050565b7f4f776e61626c653a2063616c6c6572206973206e6f7420746865206f776e6572600082015250565b600062001699602083620012ad565b9150620016a68262001661565b602082019050919050565b60006020820190508181036000830152620016cc816200168a565b9050919050565b7f41677265656d656e742063616e6e6f7420626520300000000000000000000000600082015250565b60006200170b601583620012ad565b91506200171882620016d3565b602082019050919050565b600060208201905081810360008301526200173e81620016fc565b9050919050565b7f41677265656d656e74206d757374206265206120636f6e747261637400000000600082015250565b60006200177d601c83620012ad565b91506200178a8262001745565b602082019050919050565b60006020820190508181036000830152620017b0816200176e565b9050919050565b7f4f6e6c79204665654d616e616765722063616e20636f6c6c6563742066656500600082015250565b6000620017ef601f83620012ad565b9150620017fc82620017b7565b602082019050919050565b600060208201905081810360008301526200182281620017e0565b9050919050565b7f4f776e61626c653a206e6577206f776e657220697320746865207a65726f206160008201527f6464726573730000000000000000000000000000000000000000000000000000602082015250565b600062001887602683620012ad565b9150620018948262001829565b604082019050919050565b60006020820190508181036000830152620018ba8162001878565b9050919050565b6000819050919050565b600060ff82169050919050565b6000620018f9620018f3620018ed84620018c1565b620014ea565b620018cb565b9050919050565b6200190b81620018d8565b82525050565b600060208201905062001928600083018462001900565b92915050565b7f496e697469616c697a61626c653a20636f6e747261637420697320616c72656160008201527f647920696e697469616c697a6564000000000000000000000000000000000000602082015250565b60006200198c602e83620012ad565b915062001999826200192e565b604082019050919050565b60006020820190508181036000830152620019bf816200197d565b9050919050565b7f496e697469616c697a61626c653a20636f6e7472616374206973206e6f74206960008201527f6e697469616c697a696e67000000000000000000000000000000000000000000602082015250565b600062001a24602b83620012ad565b915062001a3182620019c6565b604082019050919050565b6000602082019050818103600083015262001a578162001a15565b905091905056fe60806040523480156200001157600080fd5b5060405162000fce38038062000fce833981810160405281019062000037919062000515565b6200004982826200005160201b60201c565b505062000792565b62000062826200008a60201b60201c565b60008151111562000086576200008482826200016060201b620001831760201c565b505b5050565b620000a0816200019660201b620001b01760201c565b620000e2576040517f08c379a0000000000000000000000000000000000000000000000000000000008152600401620000d99062000602565b60405180910390fd5b806200011c7f360894a13ba1a3210667c828492db98dca3e2076cc3735a920a3ca505d382bbc60001b620001b960201b620001d31760201c565b60000160006101000a81548173ffffffffffffffffffffffffffffffffffffffff021916908373ffffffffffffffffffffffffffffffffffffffff16021790555050565b60606200018e838360405180606001604052806027815260200162000fa760279139620001c360201b60201c565b905092915050565b6000808273ffffffffffffffffffffffffffffffffffffffff163b119050919050565b6000819050919050565b6060620001d6846200019660201b60201c565b62000218576040517f08c379a00000000000000000000000000000000000000000000000000000000081526004016200020f906200069a565b60405180910390fd5b6000808573ffffffffffffffffffffffffffffffffffffffff168560405162000242919062000709565b600060405180830381855af49150503d80600081146200027f576040519150601f19603f3d011682016040523d82523d6000602084013e62000284565b606091505b50915091506200029c828286620002a760201b60201c565b925050509392505050565b60608315620002b9578290506200030c565b600083511115620002cd5782518084602001fd5b816040517f08c379a00000000000000000000000000000000000000000000000000000000081526004016200030391906200076e565b60405180910390fd5b9392505050565b6000604051905090565b600080fd5b600080fd5b600073ffffffffffffffffffffffffffffffffffffffff82169050919050565b6000620003548262000327565b9050919050565b620003668162000347565b81146200037257600080fd5b50565b60008151905062000386816200035b565b92915050565b600080fd5b600080fd5b6000601f19601f8301169050919050565b7f4e487b7100000000000000000000000000000000000000000000000000000000600052604160045260246000fd5b620003e18262000396565b810181811067ffffffffffffffff82111715620004035762000402620003a7565b5b80604052505050565b60006200041862000313565b9050620004268282620003d6565b919050565b600067ffffffffffffffff821115620004495762000448620003a7565b5b620004548262000396565b9050602081019050919050565b60005b838110156200048157808201518184015260208101905062000464565b8381111562000491576000848401525b50505050565b6000620004ae620004a8846200042b565b6200040c565b905082815260208101848484011115620004cd57620004cc62000391565b5b620004da84828562000461565b509392505050565b600082601f830112620004fa57620004f96200038c565b5b81516200050c84826020860162000497565b91505092915050565b600080604083850312156200052f576200052e6200031d565b5b60006200053f8582860162000375565b925050602083015167ffffffffffffffff81111562000563576200056262000322565b5b6200057185828601620004e2565b9150509250929050565b600082825260208201905092915050565b7f455243313936373a206e657720696d706c656d656e746174696f6e206973206e60008201527f6f74206120636f6e747261637400000000000000000000000000000000000000602082015250565b6000620005ea602d836200057b565b9150620005f7826200058c565b604082019050919050565b600060208201905081810360008301526200061d81620005db565b9050919050565b7f416464726573733a2064656c65676174652063616c6c20746f206e6f6e2d636f60008201527f6e74726163740000000000000000000000000000000000000000000000000000602082015250565b6000620006826026836200057b565b91506200068f8262000624565b604082019050919050565b60006020820190508181036000830152620006b58162000673565b9050919050565b600081519050919050565b600081905092915050565b6000620006df82620006bc565b620006eb8185620006c7565b9350620006fd81856020860162000461565b80840191505092915050565b6000620007178284620006d2565b915081905092915050565b600081519050919050565b60006200073a8262000722565b6200074681856200057b565b93506200075881856020860162000461565b620007638162000396565b840191505092915050565b600060208201905081810360008301526200078a81846200072d565b905092915050565b61080580620007a26000396000f3fe6080604052600436106100225760003560e01c80633659cfe61461003b57610031565b366100315761002f610064565b005b610039610064565b005b34801561004757600080fd5b50610062600480360381019061005d91906104ac565b61007e565b005b61006c6101dd565b61007c6100776101df565b610236565b565b3073ffffffffffffffffffffffffffffffffffffffff163373ffffffffffffffffffffffffffffffffffffffff16146100ec576040517f08c379a00000000000000000000000000000000000000000000000000000000081526004016100e39061055c565b60405180910390fd5b6100f5816101b0565b610134576040517f08c379a000000000000000000000000000000000000000000000000000000000815260040161012b906105ee565b60405180910390fd5b61013d8161025c565b8073ffffffffffffffffffffffffffffffffffffffff167fbc7cd75a20ee27fd9adebab32041f755214dbc6bffa90cc0225b39da2e5c2d3b60405160405180910390a250565b60606101a883836040518060600160405280602781526020016107a960279139610315565b905092915050565b6000808273ffffffffffffffffffffffffffffffffffffffff163b119050919050565b6000819050919050565b565b600061020d7f360894a13ba1a3210667c828492db98dca3e2076cc3735a920a3ca505d382bbc60001b6101d3565b60000160009054906101000a900473ffffffffffffffffffffffffffffffffffffffff16905090565b3660008037600080366000845af43d6000803e8060008114610257573d6000f35b3d6000fd5b610265816101b0565b6102a4576040517f08c379a000000000000000000000000000000000000000000000000000000000815260040161029b906105ee565b60405180910390fd5b806102d17f360894a13ba1a3210667c828492db98dca3e2076cc3735a920a3ca505d382bbc60001b6101d3565b60000160006101000a81548173ffffffffffffffffffffffffffffffffffffffff021916908373ffffffffffffffffffffffffffffffffffffffff16021790555050565b6060610320846101b0565b61035f576040517f08c379a000000000000000000000000000000000000000000000000000000000815260040161035690610680565b60405180910390fd5b6000808573ffffffffffffffffffffffffffffffffffffffff1685604051610387919061071a565b600060405180830381855af49150503d80600081146103c2576040519150601f19603f3d011682016040523d82523d6000602084013e6103c7565b606091505b50915091506103d78282866103e2565b925050509392505050565b606083156103f257829050610442565b6000835111156104055782518084602001fd5b816040517f08c379a00000000000000000000000000000000000000000000000000000000081526004016104399190610786565b60405180910390fd5b9392505050565b600080fd5b600073ffffffffffffffffffffffffffffffffffffffff82169050919050565b60006104798261044e565b9050919050565b6104898161046e565b811461049457600080fd5b50565b6000813590506104a681610480565b92915050565b6000602082840312156104c2576104c1610449565b5b60006104d084828501610497565b91505092915050565b600082825260208201905092915050565b7f50726f78793a2043616e206f6e6c79206265207570677261646564206279206960008201527f7473656c66000000000000000000000000000000000000000000000000000000602082015250565b60006105466025836104d9565b9150610551826104ea565b604082019050919050565b6000602082019050818103600083015261057581610539565b9050919050565b7f455243313936373a206e657720696d706c656d656e746174696f6e206973206e60008201527f6f74206120636f6e747261637400000000000000000000000000000000000000602082015250565b60006105d8602d836104d9565b91506105e38261057c565b604082019050919050565b60006020820190508181036000830152610607816105cb565b9050919050565b7f416464726573733a2064656c65676174652063616c6c20746f206e6f6e2d636f60008201527f6e74726163740000000000000000000000000000000000000000000000000000602082015250565b600061066a6026836104d9565b91506106758261060e565b604082019050919050565b600060208201905081810360008301526106998161065d565b9050919050565b600081519050919050565b600081905092915050565b60005b838110156106d45780820151818401526020810190506106b9565b838111156106e3576000848401525b50505050565b60006106f4826106a0565b6106fe81856106ab565b935061070e8185602086016106b6565b80840191505092915050565b600061072682846106e9565b915081905092915050565b600081519050919050565b6000601f19601f8301169050919050565b600061075882610731565b61076281856104d9565b93506107728185602086016106b6565b61077b8161073c565b840191505092915050565b600060208201905081810360008301526107a0818461074d565b90509291505056fe416464726573733a206c6f772d6c6576656c2064656c65676174652063616c6c206661696c6564a26469706673582212205230086f2931c3f0c221b7510cd68d1dc2e18cfbfafae7ff6517837ecd478b8e64736f6c634300080d0033416464726573733a206c6f772d6c6576656c2064656c65676174652063616c6c206661696c6564a2646970667358221220747d9fbcf0d69e7f46289b785f4bfc313daa81e0acd2b5fcc71133286929f22d64736f6c634300080d0033",
  "linkReferences": {},
  "deployedLinkReferences": {}
}