{
  "_format": "hh-sol-artifact-1",
  "contractName": "Agreement",
  "sourceName": "contracts/agreements/Agreement.sol",
  "abi": [
    {
      "anonymous": false,
      "inputs": [
        {
          "indexed": false,
          "internalType": "address",
          "name": "account",
          "type": "address"
        }
      ],
      "name": "AdminAdded",
      "type": "event"
    },
    {
      "anonymous": false,
      "inputs": [
        {
          "indexed": false,
          "internalType": "address",
          "name": "account",
          "type": "address"
        }
      ],
      "name": "AdminRemoved",
      "type": "event"
    },
    {
      "anonymous": false,
      "inputs": [
        {
          "indexed": true,
          "internalType": "address",
          "name": "owner",
          "type": "address"
        },
        {
          "indexed": true,
          "internalType": "address",
          "name": "spender",
          "type": "address"
        },
        {
          "indexed": false,
          "internalType": "uint256",
          "name": "value",
          "type": "uint256"
        }
      ],
      "name": "Approval",
      "type": "event"
    },
    {
      "anonymous": false,
      "inputs": [
        {
          "indexed": false,
          "internalType": "string",
          "name": "dataHash",
          "type": "string"
        }
      ],
      "name": "DataHashChanged",
      "type": "event"
    },
    {
      "anonymous": false,
      "inputs": [
        {
          "indexed": false,
          "internalType": "uint256",
          "name": "newFee",
          "type": "uint256"
        },
        {
          "indexed": false,
          "internalType": "uint256",
          "name": "totalFee",
          "type": "uint256"
        }
      ],
      "name": "FeeAvailable",
      "type": "event"
    },
    {
      "anonymous": false,
      "inputs": [
        {
          "indexed": false,
          "internalType": "uint256",
          "name": "amount",
          "type": "uint256"
        }
      ],
      "name": "FeeCollected",
      "type": "event"
    },
    {
      "anonymous": false,
      "inputs": [
        {
          "indexed": false,
          "internalType": "uint8",
          "name": "version",
          "type": "uint8"
        }
      ],
      "name": "Initialized",
      "type": "event"
    },
    {
      "anonymous": false,
      "inputs": [
        {
          "indexed": true,
          "internalType": "address",
          "name": "from",
          "type": "address"
        },
        {
          "indexed": true,
          "internalType": "address",
          "name": "to",
          "type": "address"
        },
        {
          "indexed": false,
          "internalType": "uint256",
          "name": "value",
          "type": "uint256"
        }
      ],
      "name": "Transfer",
      "type": "event"
    },
    {
      "anonymous": false,
      "inputs": [
        {
          "indexed": false,
          "internalType": "address",
          "name": "account",
          "type": "address"
        },
        {
          "indexed": false,
          "internalType": "uint256",
          "name": "value",
          "type": "uint256"
        }
      ],
      "name": "UserIncomeCollected",
      "type": "event"
    },
    {
      "inputs": [
        {
          "internalType": "address",
          "name": "user",
          "type": "address"
        }
      ],
      "name": "addAdmin",
      "outputs": [],
      "stateMutability": "nonpayable",
      "type": "function"
    },
    {
      "inputs": [
        {
          "internalType": "address",
          "name": "owner",
          "type": "address"
        },
        {
          "internalType": "address",
          "name": "spender",
          "type": "address"
        }
      ],
      "name": "allowance",
      "outputs": [
        {
          "internalType": "uint256",
          "name": "",
          "type": "uint256"
        }
      ],
      "stateMutability": "view",
      "type": "function"
    },
    {
      "inputs": [
        {
          "internalType": "address",
          "name": "spender",
          "type": "address"
        },
        {
          "internalType": "uint256",
          "name": "amount",
          "type": "uint256"
        }
      ],
      "name": "approve",
      "outputs": [
        {
          "internalType": "bool",
          "name": "",
          "type": "bool"
        }
      ],
      "stateMutability": "nonpayable",
      "type": "function"
    },
    {
      "inputs": [
        {
          "internalType": "address",
          "name": "account",
          "type": "address"
        }
      ],
      "name": "balanceOf",
      "outputs": [
        {
          "internalType": "uint256",
          "name": "",
          "type": "uint256"
        }
      ],
      "stateMutability": "view",
      "type": "function"
    },
    {
      "inputs": [],
      "name": "collectFee",
      "outputs": [],
      "stateMutability": "nonpayable",
      "type": "function"
    },
    {
      "inputs": [
        {
          "internalType": "address",
          "name": "user",
          "type": "address"
        }
      ],
      "name": "collectUserIncome",
      "outputs": [],
      "stateMutability": "nonpayable",
      "type": "function"
    },
    {
      "inputs": [],
      "name": "dataHash",
      "outputs": [
        {
          "internalType": "string",
          "name": "",
          "type": "string"
        }
      ],
      "stateMutability": "view",
      "type": "function"
    },
    {
      "inputs": [],
      "name": "decimals",
      "outputs": [
        {
          "internalType": "uint8",
          "name": "",
          "type": "uint8"
        }
      ],
      "stateMutability": "view",
      "type": "function"
    },
    {
      "inputs": [
        {
          "internalType": "address",
          "name": "spender",
          "type": "address"
        },
        {
          "internalType": "uint256",
          "name": "subtractedValue",
          "type": "uint256"
        }
      ],
      "name": "decreaseAllowance",
      "outputs": [
        {
          "internalType": "bool",
          "name": "",
          "type": "bool"
        }
      ],
      "stateMutability": "nonpayable",
      "type": "function"
    },
    {
      "inputs": [],
      "name": "getAvailableFee",
      "outputs": [
        {
          "internalType": "uint256",
          "name": "",
          "type": "uint256"
        }
      ],
      "stateMutability": "view",
      "type": "function"
    },
    {
      "inputs": [
        {
          "internalType": "address",
          "name": "spender",
          "type": "address"
        },
        {
          "internalType": "uint256",
          "name": "addedValue",
          "type": "uint256"
        }
      ],
      "name": "increaseAllowance",
      "outputs": [
        {
          "internalType": "bool",
          "name": "",
          "type": "bool"
        }
      ],
      "stateMutability": "nonpayable",
      "type": "function"
    },
    {
      "inputs": [
        {
          "internalType": "string",
          "name": "_dataHash",
          "type": "string"
        },
        {
          "components": [
            {
              "internalType": "address",
              "name": "account",
              "type": "address"
            },
            {
              "internalType": "bool",
              "name": "isAdmin",
              "type": "bool"
            },
            {
              "internalType": "uint256",
              "name": "balance",
              "type": "uint256"
            }
          ],
          "internalType": "struct Agreement.Holder[]",
          "name": "holders",
          "type": "tuple[]"
        },
        {
          "internalType": "address",
          "name": "trackedTokenAddress",
          "type": "address"
        },
        {
          "internalType": "address",
          "name": "feeManagerAddress",
          "type": "address"
        },
        {
          "internalType": "address",
          "name": "lendingContractAddress",
          "type": "address"
        },
        {
          "internalType": "address",
          "name": "cyclePreventionRegistryAddress",
          "type": "address"
        }
      ],
      "name": "initialize",
      "outputs": [],
      "stateMutability": "nonpayable",
      "type": "function"
    },
    {
      "inputs": [
        {
          "internalType": "address",
          "name": "user",
          "type": "address"
        }
      ],
      "name": "isAdmin",
      "outputs": [
        {
          "internalType": "bool",
          "name": "",
          "type": "bool"
        }
      ],
      "stateMutability": "view",
      "type": "function"
    },
    {
      "inputs": [],
      "name": "name",
      "outputs": [
        {
          "internalType": "string",
          "name": "",
          "type": "string"
        }
      ],
      "stateMutability": "view",
      "type": "function"
    },
    {
      "inputs": [
        {
          "internalType": "address",
          "name": "user",
          "type": "address"
        }
      ],
      "name": "removeAdmin",
      "outputs": [],
      "stateMutability": "nonpayable",
      "type": "function"
    },
    {
      "inputs": [
        {
          "internalType": "string",
          "name": "_dataHash",
          "type": "string"
        }
      ],
      "name": "setDataHash",
      "outputs": [],
      "stateMutability": "nonpayable",
      "type": "function"
    },
    {
      "inputs": [],
      "name": "symbol",
      "outputs": [
        {
          "internalType": "string",
          "name": "",
          "type": "string"
        }
      ],
      "stateMutability": "view",
      "type": "function"
    },
    {
      "inputs": [],
      "name": "totalSupply",
      "outputs": [
        {
          "internalType": "uint256",
          "name": "",
          "type": "uint256"
        }
      ],
      "stateMutability": "view",
      "type": "function"
    },
    {
      "inputs": [],
      "name": "trackedToken",
      "outputs": [
        {
          "internalType": "contract ERC20Upgradeable",
          "name": "",
          "type": "address"
        }
      ],
      "stateMutability": "view",
      "type": "function"
    },
    {
      "inputs": [
        {
          "internalType": "address",
          "name": "to",
          "type": "address"
        },
        {
          "internalType": "uint256",
          "name": "amount",
          "type": "uint256"
        }
      ],
      "name": "transfer",
      "outputs": [
        {
          "internalType": "bool",
          "name": "",
          "type": "bool"
        }
      ],
      "stateMutability": "nonpayable",
      "type": "function"
    },
    {
      "inputs": [
        {
          "internalType": "address",
          "name": "from",
          "type": "address"
        },
        {
          "internalType": "address",
          "name": "to",
          "type": "address"
        },
        {
          "internalType": "uint256",
          "name": "amount",
          "type": "uint256"
        }
      ],
      "name": "transferFrom",
      "outputs": [
        {
          "internalType": "bool",
          "name": "",
          "type": "bool"
        }
      ],
      "stateMutability": "nonpayable",
      "type": "function"
    },
    {
      "inputs": [
        {
          "internalType": "contract ERC20Upgradeable",
          "name": "agreement",
          "type": "address"
        },
        {
          "internalType": "address",
          "name": "recipient",
          "type": "address"
        },
        {
          "internalType": "uint256",
          "name": "amount",
          "type": "uint256"
        }
      ],
      "name": "transferOwned",
      "outputs": [],
      "stateMutability": "nonpayable",
      "type": "function"
    },
    {
      "inputs": [
        {
          "internalType": "address",
          "name": "implementation",
          "type": "address"
        }
      ],
      "name": "upgrade",
      "outputs": [],
      "stateMutability": "nonpayable",
      "type": "function"
    }
  ],
  "bytecode": "0x608060405234801561001057600080fd5b5061497a806100206000396000f3fe608060405234801561001057600080fd5b506004361061014d5760003560e01c80633816136e116100c3578063a457c2d71161007c578063a457c2d71461039e578063a9059cbb146103ce578063b7b65f37146103fe578063d4d5d32a1461041c578063dd62ed3e14610426578063debfd985146104565761014d565b80633816136e146102ca57806339509351146102e65780636d0cd1e714610316578063704802751461033457806370a082311461035057806395d89b41146103805761014d565b80631b3012a3116101155780631b3012a3146101f657806323b872dd1461021457806324d7806c1461024457806328d6e75b14610274578063313ce567146102905780633447d65d146102ae5761014d565b806306fdde03146101525780630900f01014610170578063095ea7b31461018c5780631785f53c146101bc57806318160ddd146101d8575b600080fd5b61015a610472565b6040516101679190612f02565b60405180910390f35b61018a60048036038101906101859190612f96565b610504565b005b6101a660048036038101906101a19190612ff9565b610605565b6040516101b39190613054565b60405180910390f35b6101d660048036038101906101d19190612f96565b610628565b005b6101e061083d565b6040516101ed919061307e565b60405180910390f35b6101fe610847565b60405161020b9190612f02565b60405180910390f35b61022e60048036038101906102299190613099565b6108d5565b60405161023b9190613054565b60405180910390f35b61025e60048036038101906102599190612f96565b610904565b60405161026b9190613054565b60405180910390f35b61028e6004803603810190610289919061312a565b61095a565b005b610298610a1d565b6040516102a59190613199565b60405180910390f35b6102c860048036038101906102c391906132e9565b610a26565b005b6102e460048036038101906102df919061348f565b610ac5565b005b61030060048036038101906102fb9190612ff9565b610e2d565b60405161030d9190613054565b60405180910390f35b61031e610e64565b60405161032b919061307e565b60405180910390f35b61034e60048036038101906103499190612f96565b611018565b005b61036a60048036038101906103659190612f96565b6110b7565b604051610377919061307e565b60405180910390f35b610388611100565b6040516103959190612f02565b60405180910390f35b6103b860048036038101906103b39190612ff9565b611192565b6040516103c59190613054565b60405180910390f35b6103e860048036038101906103e39190612ff9565b611209565b6040516103f59190613054565b60405180910390f35b61040661122c565b60405161041391906135b3565b60405180910390f35b610424611252565b005b610440600480360381019061043b91906135ce565b6113c6565b60405161044d919061307e565b60405180910390f35b610470600480360381019061046b9190612f96565b61144d565b005b6060603680546104819061363d565b80601f01602080910402602001604051908101604052809291908181526020018280546104ad9061363d565b80156104fa5780601f106104cf576101008083540402835291602001916104fa565b820191906000526020600020905b8154815290600101906020018083116104dd57829003601f168201915b5050505050905090565b60011515606f60003373ffffffffffffffffffffffffffffffffffffffff1673ffffffffffffffffffffffffffffffffffffffff16815260200190815260200160002060009054906101000a900460ff16151514610597576040517f08c379a000000000000000000000000000000000000000000000000000000000815260040161058e906136ba565b60405180910390fd5b3073ffffffffffffffffffffffffffffffffffffffff16633659cfe6826040518263ffffffff1660e01b81526004016105d091906136e9565b600060405180830381600087803b1580156105ea57600080fd5b505af11580156105fe573d6000803e3d6000fd5b5050505050565b6000806106106117bf565b905061061d8185856117c7565b600191505092915050565b60011515606f60003373ffffffffffffffffffffffffffffffffffffffff1673ffffffffffffffffffffffffffffffffffffffff16815260200190815260200160002060009054906101000a900460ff161515146106bb576040517f08c379a00000000000000000000000000000000000000000000000000000000081526004016106b2906136ba565b60405180910390fd5b60011515606f60008373ffffffffffffffffffffffffffffffffffffffff1673ffffffffffffffffffffffffffffffffffffffff16815260200190815260200160002060009054906101000a900460ff1615151461074e576040517f08c379a000000000000000000000000000000000000000000000000000000000815260040161074590613750565b60405180910390fd5b6001606d5411610793576040517f08c379a000000000000000000000000000000000000000000000000000000000815260040161078a906137bc565b60405180910390fd5b606d60008154809291906107a69061380b565b91905055506000606f60008373ffffffffffffffffffffffffffffffffffffffff1673ffffffffffffffffffffffffffffffffffffffff16815260200190815260200160002060006101000a81548160ff0219169083151502179055507fa3b62bc36326052d97ea62d63c3d60308ed4c3ea8ac079dd8499f1e9c4f80c0f8160405161083291906136e9565b60405180910390a150565b6000603554905090565b607080546108549061363d565b80601f01602080910402602001604051908101604052809291908181526020018280546108809061363d565b80156108cd5780601f106108a2576101008083540402835291602001916108cd565b820191906000526020600020905b8154815290600101906020018083116108b057829003601f168201915b505050505081565b6000806108e06117bf565b90506108ed858285611990565b6108f8858585611a1c565b60019150509392505050565b6000606f60008373ffffffffffffffffffffffffffffffffffffffff1673ffffffffffffffffffffffffffffffffffffffff16815260200190815260200160002060009054906101000a900460ff169050919050565b60011515606f60003373ffffffffffffffffffffffffffffffffffffffff1673ffffffffffffffffffffffffffffffffffffffff16815260200190815260200160002060009054906101000a900460ff161515146109ed576040517f08c379a00000000000000000000000000000000000000000000000000000000081526004016109e4906136ba565b60405180910390fd5b610a1882828573ffffffffffffffffffffffffffffffffffffffff16611c9e9092919063ffffffff16565b505050565b60006012905090565b60011515606f60003373ffffffffffffffffffffffffffffffffffffffff1673ffffffffffffffffffffffffffffffffffffffff16815260200190815260200160002060009054906101000a900460ff16151514610ab9576040517f08c379a0000000000000000000000000000000000000000000000000000000008152600401610ab0906136ba565b60405180910390fd5b610ac281611d24565b50565b6000610ad16001611d9a565b90508015610af5576001600060016101000a81548160ff0219169083151502179055505b6000865111610b39576040517f08c379a0000000000000000000000000000000000000000000000000000000008152600401610b3090613880565b60405180910390fd5b600073ffffffffffffffffffffffffffffffffffffffff168573ffffffffffffffffffffffffffffffffffffffff1603610ba8576040517f08c379a0000000000000000000000000000000000000000000000000000000008152600401610b9f90613912565b60405180910390fd5b85600081518110610bbc57610bbb613932565b5b602002602001015160200151610c07576040517f08c379a0000000000000000000000000000000000000000000000000000000008152600401610bfe906139ad565b60405180910390fd5b610c7b6040518060400160405280600c81526020017f4f572041677265656d656e7400000000000000000000000000000000000000008152506040518060400160405280600581526020017f7368617265000000000000000000000000000000000000000000000000000000815250611e8a565b84606560006101000a81548173ffffffffffffffffffffffffffffffffffffffff021916908373ffffffffffffffffffffffffffffffffffffffff160217905550610cc587611d24565b83606660006101000a81548173ffffffffffffffffffffffffffffffffffffffff021916908373ffffffffffffffffffffffffffffffffffffffff16021790555082606760006101000a81548173ffffffffffffffffffffffffffffffffffffffff021916908373ffffffffffffffffffffffffffffffffffffffff16021790555081606860006101000a81548173ffffffffffffffffffffffffffffffffffffffff021916908373ffffffffffffffffffffffffffffffffffffffff16021790555060005b8651811015610dca57610db7878281518110610daa57610da9613932565b5b6020026020010151611ee7565b8080610dc2906139cd565b915050610d8b565b508015610e245760008060016101000a81548160ff0219169083151502179055507f7f26b83ff96e1f2b6a682f133852f6798a09c465da95921460cefb38474024986001604051610e1b9190613a50565b60405180910390a15b50505050505050565b600080610e386117bf565b9050610e59818585610e4a85896113c6565b610e549190613a6b565b6117c7565b600191505092915050565b600080606660009054906101000a900473ffffffffffffffffffffffffffffffffffffffff1673ffffffffffffffffffffffffffffffffffffffff16636ef06a086040518163ffffffff1660e01b8152600401602060405180830381865afa158015610ed4573d6000803e3d6000fd5b505050506040513d601f19601f82011682018060405250810190610ef89190613ad6565b90506000606c54606b54610f0c9190613b03565b9050610f1661201d565b1561100f576000606560009054906101000a900473ffffffffffffffffffffffffffffffffffffffff1673ffffffffffffffffffffffffffffffffffffffff166370a08231306040518263ffffffff1660e01b8152600401610f7891906136e9565b602060405180830381865afa158015610f95573d6000803e3d6000fd5b505050506040513d601f19601f82011682018060405250810190610fb99190613ad6565b606a54610fc69190613a6b565b9050600060695482610fd89190613b03565b9050670de0b6b3a76400008482610fef9190613b37565b610ff99190613bc0565b836110049190613a6b565b945050505050611015565b80925050505b90565b60011515606f60003373ffffffffffffffffffffffffffffffffffffffff1673ffffffffffffffffffffffffffffffffffffffff16815260200190815260200160002060009054906101000a900460ff161515146110ab576040517f08c379a00000000000000000000000000000000000000000000000000000000081526004016110a2906136ba565b60405180910390fd5b6110b4816120d1565b50565b6000603360008373ffffffffffffffffffffffffffffffffffffffff1673ffffffffffffffffffffffffffffffffffffffff168152602001908152602001600020549050919050565b60606037805461110f9061363d565b80601f016020809104026020016040519081016040528092919081815260200182805461113b9061363d565b80156111885780601f1061115d57610100808354040283529160200191611188565b820191906000526020600020905b81548152906001019060200180831161116b57829003601f168201915b5050505050905090565b60008061119d6117bf565b905060006111ab82866113c6565b9050838110156111f0576040517f08c379a00000000000000000000000000000000000000000000000000000000081526004016111e790613c63565b60405180910390fd5b6111fd82868684036117c7565b60019250505092915050565b6000806112146117bf565b9050611221818585611a1c565b600191505092915050565b606560009054906101000a900473ffffffffffffffffffffffffffffffffffffffff1681565b606660009054906101000a900473ffffffffffffffffffffffffffffffffffffffff1673ffffffffffffffffffffffffffffffffffffffff163373ffffffffffffffffffffffffffffffffffffffff16146112e2576040517f08c379a00000000000000000000000000000000000000000000000000000000081526004016112d990613ccf565b60405180910390fd5b6112ea61201d565b156112f9576112f761227d565b505b6000606c54606b5461130b9190613b03565b905080606a600082825461131f9190613a6b565b9250508190555080606c60008282546113389190613a6b565b9250508190555061138c3382606560009054906101000a900473ffffffffffffffffffffffffffffffffffffffff1673ffffffffffffffffffffffffffffffffffffffff16611c9e9092919063ffffffff16565b7fc472cb3a7a659a876494d66b3063145f279701771d6150b9329c31611ed6405c816040516113bb919061307e565b60405180910390a150565b6000603460008473ffffffffffffffffffffffffffffffffffffffff1673ffffffffffffffffffffffffffffffffffffffff16815260200190815260200160002060008373ffffffffffffffffffffffffffffffffffffffff1673ffffffffffffffffffffffffffffffffffffffff16815260200190815260200160002054905092915050565b600061145761201d565b1561146b5761146461227d565b90506114ff565b606660009054906101000a900473ffffffffffffffffffffffffffffffffffffffff1673ffffffffffffffffffffffffffffffffffffffff16636ef06a086040518163ffffffff1660e01b8152600401602060405180830381865afa1580156114d8573d6000803e3d6000fd5b505050506040513d601f19601f820116820180604052508101906114fc9190613ad6565b90505b606954606e60008473ffffffffffffffffffffffffffffffffffffffff1673ffffffffffffffffffffffffffffffffffffffff16815260200190815260200160002054146117bb57600061155161083d565b61155a846110b7565b606e60008673ffffffffffffffffffffffffffffffffffffffff1673ffffffffffffffffffffffffffffffffffffffff168152602001908152602001600020546069546115a79190613b03565b6115b19190613b37565b6115bb9190613bc0565b9050670de0b6b3a764000082826115d29190613b37565b6115dc9190613bc0565b816115e79190613b03565b9050606954606e60008573ffffffffffffffffffffffffffffffffffffffff1673ffffffffffffffffffffffffffffffffffffffff1681526020019081526020016000208190555080606a60008282546116419190613a6b565b925050819055506116b7606760009054906101000a900473ffffffffffffffffffffffffffffffffffffffff1682606560009054906101000a900473ffffffffffffffffffffffffffffffffffffffff1673ffffffffffffffffffffffffffffffffffffffff1661233b9092919063ffffffff16565b606760009054906101000a900473ffffffffffffffffffffffffffffffffffffffff1673ffffffffffffffffffffffffffffffffffffffff1663beabacc83085846040518463ffffffff1660e01b815260040161171693929190613cef565b600060405180830381600087803b15801561173057600080fd5b505af1925050508015611741575060015b611780576040517f08c379a000000000000000000000000000000000000000000000000000000000815260040161177790613d72565b60405180910390fd5b7fcea971575439b4e4602e2fdde89d6fa36e83db50a87855cd28f9857ed2408e3e83826040516117b1929190613d92565b60405180910390a1505b5050565b600033905090565b600073ffffffffffffffffffffffffffffffffffffffff168373ffffffffffffffffffffffffffffffffffffffff1603611836576040517f08c379a000000000000000000000000000000000000000000000000000000000815260040161182d90613e2d565b60405180910390fd5b600073ffffffffffffffffffffffffffffffffffffffff168273ffffffffffffffffffffffffffffffffffffffff16036118a5576040517f08c379a000000000000000000000000000000000000000000000000000000000815260040161189c90613ebf565b60405180910390fd5b80603460008573ffffffffffffffffffffffffffffffffffffffff1673ffffffffffffffffffffffffffffffffffffffff16815260200190815260200160002060008473ffffffffffffffffffffffffffffffffffffffff1673ffffffffffffffffffffffffffffffffffffffff168152602001908152602001600020819055508173ffffffffffffffffffffffffffffffffffffffff168373ffffffffffffffffffffffffffffffffffffffff167f8c5be1e5ebec7d5bd14f71427d1e84f3dd0314c0f7b2291e5b200ac8c7c3b92583604051611983919061307e565b60405180910390a3505050565b600061199c84846113c6565b90507fffffffffffffffffffffffffffffffffffffffffffffffffffffffffffffffff8114611a165781811015611a08576040517f08c379a00000000000000000000000000000000000000000000000000000000081526004016119ff90613f2b565b60405180910390fd5b611a1584848484036117c7565b5b50505050565b600073ffffffffffffffffffffffffffffffffffffffff168373ffffffffffffffffffffffffffffffffffffffff1603611a8b576040517f08c379a0000000000000000000000000000000000000000000000000000000008152600401611a8290613fbd565b60405180910390fd5b600073ffffffffffffffffffffffffffffffffffffffff168273ffffffffffffffffffffffffffffffffffffffff1603611afa576040517f08c379a0000000000000000000000000000000000000000000000000000000008152600401611af19061404f565b60405180910390fd5b611b0583838361248a565b6000603360008573ffffffffffffffffffffffffffffffffffffffff1673ffffffffffffffffffffffffffffffffffffffff16815260200190815260200160002054905081811015611b8c576040517f08c379a0000000000000000000000000000000000000000000000000000000008152600401611b83906140e1565b60405180910390fd5b818103603360008673ffffffffffffffffffffffffffffffffffffffff1673ffffffffffffffffffffffffffffffffffffffff1681526020019081526020016000208190555081603360008573ffffffffffffffffffffffffffffffffffffffff1673ffffffffffffffffffffffffffffffffffffffff1681526020019081526020016000206000828254611c219190613a6b565b925050819055508273ffffffffffffffffffffffffffffffffffffffff168473ffffffffffffffffffffffffffffffffffffffff167fddf252ad1be2c89b69c2b068fc378daa952ba7f163c4a11628f55a4df523b3ef84604051611c85919061307e565b60405180910390a3611c98848484612748565b50505050565b611d1f8363a9059cbb60e01b8484604051602401611cbd929190613d92565b604051602081830303815290604052907bffffffffffffffffffffffffffffffffffffffffffffffffffffffff19166020820180517bffffffffffffffffffffffffffffffffffffffffffffffffffffffff838183161783525050505061274d565b505050565b80805190602001206070604051611d3b91906141a0565b604051809103902014611d97578060709080519060200190611d5e929190612dc6565b507f7aaacb7dbcb61116f629143468be73d2239ffb3f6cba5fd33ce68524af14842a81604051611d8e9190612f02565b60405180910390a15b50565b60008060019054906101000a900460ff1615611e115760018260ff16148015611dc95750611dc730612814565b155b611e08576040517f08c379a0000000000000000000000000000000000000000000000000000000008152600401611dff90614229565b60405180910390fd5b60009050611e85565b8160ff1660008054906101000a900460ff1660ff1610611e66576040517f08c379a0000000000000000000000000000000000000000000000000000000008152600401611e5d90614229565b60405180910390fd5b816000806101000a81548160ff021916908360ff160217905550600190505b919050565b600060019054906101000a900460ff16611ed9576040517f08c379a0000000000000000000000000000000000000000000000000000000008152600401611ed0906142bb565b60405180910390fd5b611ee38282612837565b5050565b6000816040015111611f2e576040517f08c379a0000000000000000000000000000000000000000000000000000000008152600401611f2590614327565b60405180910390fd5b600073ffffffffffffffffffffffffffffffffffffffff16816000015173ffffffffffffffffffffffffffffffffffffffff1603611fa1576040517f08c379a0000000000000000000000000000000000000000000000000000000008152600401611f9890614393565b60405180910390fd5b6000611fb082600001516110b7565b14611ff0576040517f08c379a0000000000000000000000000000000000000000000000000000000008152600401611fe7906143ff565b60405180910390fd5b612002816000015182604001516128b8565b80602001511561201a5761201981600001516120d1565b5b50565b6000606560009054906101000a900473ffffffffffffffffffffffffffffffffffffffff1673ffffffffffffffffffffffffffffffffffffffff166370a08231306040518263ffffffff1660e01b815260040161207a91906136e9565b602060405180830381865afa158015612097573d6000803e3d6000fd5b505050506040513d601f19601f820116820180604052508101906120bb9190613ad6565b606a546120c89190613a6b565b60695410905090565b600073ffffffffffffffffffffffffffffffffffffffff168173ffffffffffffffffffffffffffffffffffffffff1603612140576040517f08c379a00000000000000000000000000000000000000000000000000000000081526004016121379061446b565b60405180910390fd5b60001515606f60008373ffffffffffffffffffffffffffffffffffffffff1673ffffffffffffffffffffffffffffffffffffffff16815260200190815260200160002060009054906101000a900460ff161515146121d3576040517f08c379a00000000000000000000000000000000000000000000000000000000081526004016121ca906144d7565b60405180910390fd5b6001606f60008373ffffffffffffffffffffffffffffffffffffffff1673ffffffffffffffffffffffffffffffffffffffff16815260200190815260200160002060006101000a81548160ff021916908315150217905550606d600081548092919061223e906139cd565b91905055507f44d6d25963f097ad14f29f06854a01f575648a1ef82f30e562ccd3889717e3398160405161227291906136e9565b60405180910390a150565b6000612287612a18565b9050606560009054906101000a900473ffffffffffffffffffffffffffffffffffffffff1673ffffffffffffffffffffffffffffffffffffffff166370a08231306040518263ffffffff1660e01b81526004016122e491906136e9565b602060405180830381865afa158015612301573d6000803e3d6000fd5b505050506040513d601f19601f820116820180604052508101906123259190613ad6565b606a546123329190613a6b565b60698190555090565b60008114806123c5575060008373ffffffffffffffffffffffffffffffffffffffff1663dd62ed3e30856040518363ffffffff1660e01b81526004016123829291906144f7565b602060405180830381865afa15801561239f573d6000803e3d6000fd5b505050506040513d601f19601f820116820180604052508101906123c39190613ad6565b145b612404576040517f08c379a00000000000000000000000000000000000000000000000000000000081526004016123fb90614592565b60405180910390fd5b6124858363095ea7b360e01b8484604051602401612423929190613d92565b604051602081830303815290604052907bffffffffffffffffffffffffffffffffffffffffffffffffffffffff19166020820180517bffffffffffffffffffffffffffffffffffffffffffffffffffffffff838183161783525050505061274d565b505050565b606760009054906101000a900473ffffffffffffffffffffffffffffffffffffffff1673ffffffffffffffffffffffffffffffffffffffff16636d16490484306040518363ffffffff1660e01b81526004016124e79291906144f7565b602060405180830381865afa158015612504573d6000803e3d6000fd5b505050506040513d601f19601f8201168201806040525081019061252891906145c7565b15612568576040517f08c379a000000000000000000000000000000000000000000000000000000000815260040161255f90614640565b60405180910390fd5b6000612573836110b7565b148015612585575061258482612814565b5b1561261857606860009054906101000a900473ffffffffffffffffffffffffffffffffffffffff1673ffffffffffffffffffffffffffffffffffffffff1663c467f462836040518263ffffffff1660e01b81526004016125e591906136e9565b600060405180830381600087803b1580156125ff57600080fd5b505af1158015612613573d6000803e3d6000fd5b505050505b80612622846110b7565b148015612634575061263383612814565b5b156126c757606860009054906101000a900473ffffffffffffffffffffffffffffffffffffffff1673ffffffffffffffffffffffffffffffffffffffff1663287e8e06846040518263ffffffff1660e01b815260040161269491906136e9565b600060405180830381600087803b1580156126ae57600080fd5b505af11580156126c2573d6000803e3d6000fd5b505050505b600073ffffffffffffffffffffffffffffffffffffffff168373ffffffffffffffffffffffffffffffffffffffff1614612705576127048361144d565b5b600073ffffffffffffffffffffffffffffffffffffffff168273ffffffffffffffffffffffffffffffffffffffff1614612743576127428261144d565b5b505050565b505050565b60006127af826040518060400160405280602081526020017f5361666545524332303a206c6f772d6c6576656c2063616c6c206661696c65648152508573ffffffffffffffffffffffffffffffffffffffff16612c339092919063ffffffff16565b905060008151111561280f57808060200190518101906127cf91906145c7565b61280e576040517f08c379a0000000000000000000000000000000000000000000000000000000008152600401612805906146d2565b60405180910390fd5b5b505050565b6000808273ffffffffffffffffffffffffffffffffffffffff163b119050919050565b600060019054906101000a900460ff16612886576040517f08c379a000000000000000000000000000000000000000000000000000000000815260040161287d906142bb565b60405180910390fd5b816036908051906020019061289c929190612dc6565b5080603790805190602001906128b3929190612dc6565b505050565b600073ffffffffffffffffffffffffffffffffffffffff168273ffffffffffffffffffffffffffffffffffffffff1603612927576040517f08c379a000000000000000000000000000000000000000000000000000000000815260040161291e9061473e565b60405180910390fd5b6129336000838361248a565b80603560008282546129459190613a6b565b9250508190555080603360008473ffffffffffffffffffffffffffffffffffffffff1673ffffffffffffffffffffffffffffffffffffffff168152602001908152602001600020600082825461299b9190613a6b565b925050819055508173ffffffffffffffffffffffffffffffffffffffff16600073ffffffffffffffffffffffffffffffffffffffff167fddf252ad1be2c89b69c2b068fc378daa952ba7f163c4a11628f55a4df523b3ef83604051612a00919061307e565b60405180910390a3612a1460008383612748565b5050565b600080606660009054906101000a900473ffffffffffffffffffffffffffffffffffffffff1673ffffffffffffffffffffffffffffffffffffffff16636ef06a086040518163ffffffff1660e01b8152600401602060405180830381865afa158015612a88573d6000803e3d6000fd5b505050506040513d601f19601f82011682018060405250810190612aac9190613ad6565b9050670de0b6b3a7640000811115612af9576040517f08c379a0000000000000000000000000000000000000000000000000000000008152600401612af0906147aa565b60405180910390fd5b6000606954606560009054906101000a900473ffffffffffffffffffffffffffffffffffffffff1673ffffffffffffffffffffffffffffffffffffffff166370a08231306040518263ffffffff1660e01b8152600401612b5991906136e9565b602060405180830381865afa158015612b76573d6000803e3d6000fd5b505050506040513d601f19601f82011682018060405250810190612b9a9190613ad6565b606a54612ba79190613a6b565b612bb19190613b03565b90506000670de0b6b3a76400008383612bca9190613b37565b612bd49190613bc0565b905080606b6000828254612be89190613a6b565b925050819055507f8a8366e05faad739ef0b45a38a06863ad5680fc382abd7b48391debd8fb6663881606b54604051612c229291906147ca565b60405180910390a182935050505090565b6060612c428484600085612c4b565b90509392505050565b606082471015612c90576040517f08c379a0000000000000000000000000000000000000000000000000000000008152600401612c8790614865565b60405180910390fd5b612c9985612814565b612cd8576040517f08c379a0000000000000000000000000000000000000000000000000000000008152600401612ccf906148d1565b60405180910390fd5b6000808673ffffffffffffffffffffffffffffffffffffffff168587604051612d01919061492d565b60006040518083038185875af1925050503d8060008114612d3e576040519150601f19603f3d011682016040523d82523d6000602084013e612d43565b606091505b5091509150612d53828286612d5f565b92505050949350505050565b60608315612d6f57829050612dbf565b600083511115612d825782518084602001fd5b816040517f08c379a0000000000000000000000000000000000000000000000000000000008152600401612db69190612f02565b60405180910390fd5b9392505050565b828054612dd29061363d565b90600052602060002090601f016020900481019282612df45760008555612e3b565b82601f10612e0d57805160ff1916838001178555612e3b565b82800160010185558215612e3b579182015b82811115612e3a578251825591602001919060010190612e1f565b5b509050612e489190612e4c565b5090565b5b80821115612e65576000816000905550600101612e4d565b5090565b600081519050919050565b600082825260208201905092915050565b60005b83811015612ea3578082015181840152602081019050612e88565b83811115612eb2576000848401525b50505050565b6000601f19601f8301169050919050565b6000612ed482612e69565b612ede8185612e74565b9350612eee818560208601612e85565b612ef781612eb8565b840191505092915050565b60006020820190508181036000830152612f1c8184612ec9565b905092915050565b6000604051905090565b600080fd5b600080fd5b600073ffffffffffffffffffffffffffffffffffffffff82169050919050565b6000612f6382612f38565b9050919050565b612f7381612f58565b8114612f7e57600080fd5b50565b600081359050612f9081612f6a565b92915050565b600060208284031215612fac57612fab612f2e565b5b6000612fba84828501612f81565b91505092915050565b6000819050919050565b612fd681612fc3565b8114612fe157600080fd5b50565b600081359050612ff381612fcd565b92915050565b600080604083850312156130105761300f612f2e565b5b600061301e85828601612f81565b925050602061302f85828601612fe4565b9150509250929050565b60008115159050919050565b61304e81613039565b82525050565b60006020820190506130696000830184613045565b92915050565b61307881612fc3565b82525050565b6000602082019050613093600083018461306f565b92915050565b6000806000606084860312156130b2576130b1612f2e565b5b60006130c086828701612f81565b93505060206130d186828701612f81565b92505060406130e286828701612fe4565b9150509250925092565b60006130f782612f58565b9050919050565b613107816130ec565b811461311257600080fd5b50565b600081359050613124816130fe565b92915050565b60008060006060848603121561314357613142612f2e565b5b600061315186828701613115565b935050602061316286828701612f81565b925050604061317386828701612fe4565b9150509250925092565b600060ff82169050919050565b6131938161317d565b82525050565b60006020820190506131ae600083018461318a565b92915050565b600080fd5b600080fd5b7f4e487b7100000000000000000000000000000000000000000000000000000000600052604160045260246000fd5b6131f682612eb8565b810181811067ffffffffffffffff82111715613215576132146131be565b5b80604052505050565b6000613228612f24565b905061323482826131ed565b919050565b600067ffffffffffffffff821115613254576132536131be565b5b61325d82612eb8565b9050602081019050919050565b82818337600083830152505050565b600061328c61328784613239565b61321e565b9050828152602081018484840111156132a8576132a76131b9565b5b6132b384828561326a565b509392505050565b600082601f8301126132d0576132cf6131b4565b5b81356132e0848260208601613279565b91505092915050565b6000602082840312156132ff576132fe612f2e565b5b600082013567ffffffffffffffff81111561331d5761331c612f33565b5b613329848285016132bb565b91505092915050565b600067ffffffffffffffff82111561334d5761334c6131be565b5b602082029050602081019050919050565b600080fd5b600080fd5b61337181613039565b811461337c57600080fd5b50565b60008135905061338e81613368565b92915050565b6000606082840312156133aa576133a9613363565b5b6133b4606061321e565b905060006133c484828501612f81565b60008301525060206133d88482850161337f565b60208301525060406133ec84828501612fe4565b60408301525092915050565b600061340b61340684613332565b61321e565b9050808382526020820190506060840283018581111561342e5761342d61335e565b5b835b8181101561345757806134438882613394565b845260208401935050606081019050613430565b5050509392505050565b600082601f830112613476576134756131b4565b5b81356134868482602086016133f8565b91505092915050565b60008060008060008060c087890312156134ac576134ab612f2e565b5b600087013567ffffffffffffffff8111156134ca576134c9612f33565b5b6134d689828a016132bb565b965050602087013567ffffffffffffffff8111156134f7576134f6612f33565b5b61350389828a01613461565b955050604061351489828a01612f81565b945050606061352589828a01612f81565b935050608061353689828a01612f81565b92505060a061354789828a01612f81565b9150509295509295509295565b6000819050919050565b600061357961357461356f84612f38565b613554565b612f38565b9050919050565b600061358b8261355e565b9050919050565b600061359d82613580565b9050919050565b6135ad81613592565b82525050565b60006020820190506135c860008301846135a4565b92915050565b600080604083850312156135e5576135e4612f2e565b5b60006135f385828601612f81565b925050602061360485828601612f81565b9150509250929050565b7f4e487b7100000000000000000000000000000000000000000000000000000000600052602260045260246000fd5b6000600282049050600182168061365557607f821691505b6020821081036136685761366761360e565b5b50919050565b7f53656e646572206d75737420626520616e2061646d696e000000000000000000600082015250565b60006136a4601783612e74565b91506136af8261366e565b602082019050919050565b600060208201905081810360008301526136d381613697565b9050919050565b6136e381612f58565b82525050565b60006020820190506136fe60008301846136da565b92915050565b7f4163636f756e74206973206e6f7420616e2061646d696e000000000000000000600082015250565b600061373a601783612e74565b915061374582613704565b602082019050919050565b600060208201905081810360008301526137698161372d565b9050919050565b7f43616e6e6f742072656d6f7665206c6173742061646d696e0000000000000000600082015250565b60006137a6601883612e74565b91506137b182613770565b602082019050919050565b600060208201905081810360008301526137d581613799565b9050919050565b7f4e487b7100000000000000000000000000000000000000000000000000000000600052601160045260246000fd5b600061381682612fc3565b915060008203613829576138286137dc565b5b600182039050919050565b7f4e6f20686f6c6465727300000000000000000000000000000000000000000000600082015250565b600061386a600a83612e74565b915061387582613834565b602082019050919050565b600060208201905081810360008301526138998161385d565b9050919050565b7f41677265656d656e743a20547261636b656420746f6b656e206d757374206e6f60008201527f7420626520300000000000000000000000000000000000000000000000000000602082015250565b60006138fc602683612e74565b9150613907826138a0565b604082019050919050565b6000602082019050818103600083015261392b816138ef565b9050919050565b7f4e487b7100000000000000000000000000000000000000000000000000000000600052603260045260246000fd5b7f466972737420686f6c646572206d7573742062652061646d696e000000000000600082015250565b6000613997601a83612e74565b91506139a282613961565b602082019050919050565b600060208201905081810360008301526139c68161398a565b9050919050565b60006139d882612fc3565b91507fffffffffffffffffffffffffffffffffffffffffffffffffffffffffffffffff8203613a0a57613a096137dc565b5b600182019050919050565b6000819050919050565b6000613a3a613a35613a3084613a15565b613554565b61317d565b9050919050565b613a4a81613a1f565b82525050565b6000602082019050613a656000830184613a41565b92915050565b6000613a7682612fc3565b9150613a8183612fc3565b9250827fffffffffffffffffffffffffffffffffffffffffffffffffffffffffffffffff03821115613ab657613ab56137dc565b5b828201905092915050565b600081519050613ad081612fcd565b92915050565b600060208284031215613aec57613aeb612f2e565b5b6000613afa84828501613ac1565b91505092915050565b6000613b0e82612fc3565b9150613b1983612fc3565b925082821015613b2c57613b2b6137dc565b5b828203905092915050565b6000613b4282612fc3565b9150613b4d83612fc3565b9250817fffffffffffffffffffffffffffffffffffffffffffffffffffffffffffffffff0483118215151615613b8657613b856137dc565b5b828202905092915050565b7f4e487b7100000000000000000000000000000000000000000000000000000000600052601260045260246000fd5b6000613bcb82612fc3565b9150613bd683612fc3565b925082613be657613be5613b91565b5b828204905092915050565b7f45524332303a2064656372656173656420616c6c6f77616e63652062656c6f7760008201527f207a65726f000000000000000000000000000000000000000000000000000000602082015250565b6000613c4d602583612e74565b9150613c5882613bf1565b604082019050919050565b60006020820190508181036000830152613c7c81613c40565b9050919050565b7f4f6e6c79204665654d616e616765722063616e20636f6c6c6563742066656500600082015250565b6000613cb9601f83612e74565b9150613cc482613c83565b602082019050919050565b60006020820190508181036000830152613ce881613cac565b9050919050565b6000606082019050613d0460008301866136da565b613d1160208301856136da565b613d1e604083018461306f565b949350505050565b7f5769746864726177696e67207472616e73666572206661696c65640000000000600082015250565b6000613d5c601b83612e74565b9150613d6782613d26565b602082019050919050565b60006020820190508181036000830152613d8b81613d4f565b9050919050565b6000604082019050613da760008301856136da565b613db4602083018461306f565b9392505050565b7f45524332303a20617070726f76652066726f6d20746865207a65726f2061646460008201527f7265737300000000000000000000000000000000000000000000000000000000602082015250565b6000613e17602483612e74565b9150613e2282613dbb565b604082019050919050565b60006020820190508181036000830152613e4681613e0a565b9050919050565b7f45524332303a20617070726f766520746f20746865207a65726f20616464726560008201527f7373000000000000000000000000000000000000000000000000000000000000602082015250565b6000613ea9602283612e74565b9150613eb482613e4d565b604082019050919050565b60006020820190508181036000830152613ed881613e9c565b9050919050565b7f45524332303a20696e73756666696369656e7420616c6c6f77616e6365000000600082015250565b6000613f15601d83612e74565b9150613f2082613edf565b602082019050919050565b60006020820190508181036000830152613f4481613f08565b9050919050565b7f45524332303a207472616e736665722066726f6d20746865207a65726f20616460008201527f6472657373000000000000000000000000000000000000000000000000000000602082015250565b6000613fa7602583612e74565b9150613fb282613f4b565b604082019050919050565b60006020820190508181036000830152613fd681613f9a565b9050919050565b7f45524332303a207472616e7366657220746f20746865207a65726f206164647260008201527f6573730000000000000000000000000000000000000000000000000000000000602082015250565b6000614039602383612e74565b915061404482613fdd565b604082019050919050565b600060208201905081810360008301526140688161402c565b9050919050565b7f45524332303a207472616e7366657220616d6f756e742065786365656473206260008201527f616c616e63650000000000000000000000000000000000000000000000000000602082015250565b60006140cb602683612e74565b91506140d68261406f565b604082019050919050565b600060208201905081810360008301526140fa816140be565b9050919050565b600081905092915050565b60008190508160005260206000209050919050565b6000815461412e8161363d565b6141388186614101565b94506001821660008114614153576001811461416457614197565b60ff19831686528186019350614197565b61416d8561410c565b60005b8381101561418f57815481890152600182019150602081019050614170565b838801955050505b50505092915050565b60006141ac8284614121565b915081905092915050565b7f496e697469616c697a61626c653a20636f6e747261637420697320616c72656160008201527f647920696e697469616c697a6564000000000000000000000000000000000000602082015250565b6000614213602e83612e74565b915061421e826141b7565b604082019050919050565b6000602082019050818103600083015261424281614206565b9050919050565b7f496e697469616c697a61626c653a20636f6e7472616374206973206e6f74206960008201527f6e697469616c697a696e67000000000000000000000000000000000000000000602082015250565b60006142a5602b83612e74565b91506142b082614249565b604082019050919050565b600060208201905081810360008301526142d481614298565b9050919050565b7f486f6c6465722062616c616e6365206973207a65726f00000000000000000000600082015250565b6000614311601683612e74565b915061431c826142db565b602082019050919050565b6000602082019050818103600083015261434081614304565b9050919050565b7f486f6c646572206163636f756e74206973207a65726f00000000000000000000600082015250565b600061437d601683612e74565b915061438882614347565b602082019050919050565b600060208201905081810360008301526143ac81614370565b9050919050565b7f4475706c696361746520686f6c64657200000000000000000000000000000000600082015250565b60006143e9601083612e74565b91506143f4826143b3565b602082019050919050565b60006020820190508181036000830152614418816143dc565b9050919050565b7f496e76616c69642061646d696e00000000000000000000000000000000000000600082015250565b6000614455600d83612e74565b91506144608261441f565b602082019050919050565b6000602082019050818103600083015261448481614448565b9050919050565b7f4163636f756e7420697320616c726561647920616e2061646d696e0000000000600082015250565b60006144c1601b83612e74565b91506144cc8261448b565b602082019050919050565b600060208201905081810360008301526144f0816144b4565b9050919050565b600060408201905061450c60008301856136da565b61451960208301846136da565b9392505050565b7f5361666545524332303a20617070726f76652066726f6d206e6f6e2d7a65726f60008201527f20746f206e6f6e2d7a65726f20616c6c6f77616e636500000000000000000000602082015250565b600061457c603683612e74565b915061458782614520565b604082019050919050565b600060208201905081810360008301526145ab8161456f565b9050919050565b6000815190506145c181613368565b92915050565b6000602082840312156145dd576145dc612f2e565b5b60006145eb848285016145b2565b91505092915050565b7f41677265656d656e74206973207573656420617320636f6c6c61746572616c00600082015250565b600061462a601f83612e74565b9150614635826145f4565b602082019050919050565b600060208201905081810360008301526146598161461d565b9050919050565b7f5361666545524332303a204552433230206f7065726174696f6e20646964206e60008201527f6f74207375636365656400000000000000000000000000000000000000000000602082015250565b60006146bc602a83612e74565b91506146c782614660565b604082019050919050565b600060208201905081810360008301526146eb816146af565b9050919050565b7f45524332303a206d696e7420746f20746865207a65726f206164647265737300600082015250565b6000614728601f83612e74565b9150614733826146f2565b602082019050919050565b600060208201905081810360008301526147578161471b565b9050919050565b7f5061796d656e74206665652067726561746572207468616e2031303025000000600082015250565b6000614794601d83612e74565b915061479f8261475e565b602082019050919050565b600060208201905081810360008301526147c381614787565b9050919050565b60006040820190506147df600083018561306f565b6147ec602083018461306f565b9392505050565b7f416464726573733a20696e73756666696369656e742062616c616e636520666f60008201527f722063616c6c0000000000000000000000000000000000000000000000000000602082015250565b600061484f602683612e74565b915061485a826147f3565b604082019050919050565b6000602082019050818103600083015261487e81614842565b9050919050565b7f416464726573733a2063616c6c20746f206e6f6e2d636f6e7472616374000000600082015250565b60006148bb601d83612e74565b91506148c682614885565b602082019050919050565b600060208201905081810360008301526148ea816148ae565b9050919050565b600081519050919050565b6000614907826148f1565b6149118185614101565b9350614921818560208601612e85565b80840191505092915050565b600061493982846148fc565b91508190509291505056fea26469706673582212205f12dd059b49e5053ea005d66b2e091a772cc58e56b149d425b079414cc3d38964736f6c634300080d0033",
  "linkReferences": {},
  "deployedLinkReferences": {}
}