{
  "_format": "hh-sol-artifact-1",
  "contractName": "LendingContract",
  "sourceName": "contracts/LendingContract.sol",
  "abi": [
    {
      "inputs": [
        {
          "internalType": "contract IERC20",
          "name": "_trackedToken",
          "type": "address"
        }
      ],
      "stateMutability": "nonpayable",
      "type": "constructor"
    },
    {
      "anonymous": false,
      "inputs": [
        {
          "indexed": true,
          "internalType": "address",
          "name": "account",
          "type": "address"
        }
      ],
      "name": "AddedToWhitelist",
      "type": "event"
    },
    {
      "anonymous": false,
      "inputs": [
        {
          "indexed": true,
          "internalType": "uint256",
          "name": "id",
          "type": "uint256"
        },
        {
          "indexed": false,
          "internalType": "address[]",
          "name": "agreements",
          "type": "address[]"
        }
      ],
      "name": "LoanCreated",
      "type": "event"
    },
    {
      "anonymous": false,
      "inputs": [
        {
          "indexed": true,
          "internalType": "uint256",
          "name": "id",
          "type": "uint256"
        },
        {
          "indexed": false,
          "internalType": "uint256",
          "name": "amount",
          "type": "uint256"
        }
      ],
      "name": "LoanIncreased",
      "type": "event"
    },
    {
      "anonymous": false,
      "inputs": [
        {
          "indexed": true,
          "internalType": "address",
          "name": "previousOwner",
          "type": "address"
        },
        {
          "indexed": true,
          "internalType": "address",
          "name": "newOwner",
          "type": "address"
        }
      ],
      "name": "OwnershipTransferred",
      "type": "event"
    },
    {
      "anonymous": false,
      "inputs": [
        {
          "indexed": true,
          "internalType": "address",
          "name": "account",
          "type": "address"
        }
      ],
      "name": "RemovedFromWhitelist",
      "type": "event"
    },
    {
      "anonymous": false,
      "inputs": [
        {
          "indexed": true,
          "internalType": "uint256",
          "name": "id",
          "type": "uint256"
        },
        {
          "indexed": false,
          "internalType": "uint256",
          "name": "amount",
          "type": "uint256"
        }
      ],
      "name": "Repayment",
      "type": "event"
    },
    {
      "inputs": [
        {
          "internalType": "address",
          "name": "_address",
          "type": "address"
        }
      ],
      "name": "addToWhitelist",
      "outputs": [],
      "stateMutability": "nonpayable",
      "type": "function"
    },
    {
      "inputs": [
        {
          "internalType": "uint256",
          "name": "loanId",
          "type": "uint256"
        },
        {
          "internalType": "uint256",
          "name": "amount",
          "type": "uint256"
        }
      ],
      "name": "approveIncreaseLoan",
      "outputs": [],
      "stateMutability": "nonpayable",
      "type": "function"
    },
    {
      "inputs": [
        {
          "internalType": "address[]",
          "name": "agreements",
          "type": "address[]"
        },
        {
          "internalType": "address",
          "name": "borrower",
          "type": "address"
        },
        {
          "internalType": "address",
          "name": "lender",
          "type": "address"
        },
        {
          "internalType": "uint256",
          "name": "amount",
          "type": "uint256"
        },
        {
          "internalType": "uint256",
          "name": "interestRate",
          "type": "uint256"
        }
      ],
      "name": "approveLoan",
      "outputs": [],
      "stateMutability": "nonpayable",
      "type": "function"
    },
    {
      "inputs": [
        {
          "internalType": "uint256",
          "name": "loanId",
          "type": "uint256"
        }
      ],
      "name": "getOutstandingDebt",
      "outputs": [
        {
          "internalType": "uint256",
          "name": "debtSum",
          "type": "uint256"
        },
        {
          "internalType": "uint256",
          "name": "debt",
          "type": "uint256"
        },
        {
          "internalType": "uint256",
          "name": "interestAmount",
          "type": "uint256"
        }
      ],
      "stateMutability": "view",
      "type": "function"
    },
    {
      "inputs": [
        {
          "internalType": "address",
          "name": "borrower",
          "type": "address"
        },
        {
          "internalType": "address",
          "name": "agreement",
          "type": "address"
        }
      ],
      "name": "isCollateral",
      "outputs": [
        {
          "internalType": "bool",
          "name": "",
          "type": "bool"
        }
      ],
      "stateMutability": "view",
      "type": "function"
    },
    {
      "inputs": [
        {
          "internalType": "address",
          "name": "_address",
          "type": "address"
        }
      ],
      "name": "isWhitelisted",
      "outputs": [
        {
          "internalType": "bool",
          "name": "",
          "type": "bool"
        }
      ],
      "stateMutability": "view",
      "type": "function"
    },
    {
      "inputs": [
        {
          "internalType": "uint256",
          "name": "",
          "type": "uint256"
        }
      ],
      "name": "loans",
      "outputs": [
        {
          "internalType": "address",
          "name": "lender",
          "type": "address"
        },
        {
          "internalType": "address",
          "name": "borrower",
          "type": "address"
        },
        {
          "internalType": "uint256",
          "name": "amountLeft",
          "type": "uint256"
        },
        {
          "internalType": "uint256",
          "name": "accumulatedInterestLeft",
          "type": "uint256"
        },
        {
          "internalType": "uint256",
          "name": "interestRate",
          "type": "uint256"
        },
        {
          "internalType": "uint256",
          "name": "interestPayed",
          "type": "uint256"
        },
        {
          "internalType": "uint256",
          "name": "lastRecalculationDate",
          "type": "uint256"
        }
      ],
      "stateMutability": "view",
      "type": "function"
    },
    {
      "inputs": [],
      "name": "owner",
      "outputs": [
        {
          "internalType": "address",
          "name": "",
          "type": "address"
        }
      ],
      "stateMutability": "view",
      "type": "function"
    },
    {
      "inputs": [
        {
          "internalType": "address",
          "name": "_address",
          "type": "address"
        }
      ],
      "name": "removeFromWhitelist",
      "outputs": [],
      "stateMutability": "nonpayable",
      "type": "function"
    },
    {
      "inputs": [],
      "name": "renounceOwnership",
      "outputs": [],
      "stateMutability": "nonpayable",
      "type": "function"
    },
    {
      "inputs": [
        {
          "internalType": "uint256",
          "name": "loanId",
          "type": "uint256"
        },
        {
          "internalType": "uint256",
          "name": "repayment",
          "type": "uint256"
        }
      ],
      "name": "repay",
      "outputs": [],
      "stateMutability": "nonpayable",
      "type": "function"
    },
    {
      "inputs": [],
      "name": "trackedToken",
      "outputs": [
        {
          "internalType": "contract IERC20",
          "name": "",
          "type": "address"
        }
      ],
      "stateMutability": "view",
      "type": "function"
    },
    {
      "inputs": [
        {
          "internalType": "address",
          "name": "agreement",
          "type": "address"
        },
        {
          "internalType": "address",
          "name": "to",
          "type": "address"
        },
        {
          "internalType": "uint256",
          "name": "amount",
          "type": "uint256"
        }
      ],
      "name": "transfer",
      "outputs": [],
      "stateMutability": "nonpayable",
      "type": "function"
    },
    {
      "inputs": [
        {
          "internalType": "address",
          "name": "newOwner",
          "type": "address"
        }
      ],
      "name": "transferOwnership",
      "outputs": [],
      "stateMutability": "nonpayable",
      "type": "function"
    },
    {
      "inputs": [
        {
          "internalType": "address",
          "name": "",
          "type": "address"
        }
      ],
      "name": "whitelist",
      "outputs": [
        {
          "internalType": "bool",
          "name": "",
          "type": "bool"
        }
      ],
      "stateMutability": "view",
      "type": "function"
    }
  ],
  "bytecode": "0x6080604052670de0b6b3a764000060025560006003553480156200002257600080fd5b5060405162002f2038038062002f208339818101604052810190620000489190620001fa565b620000686200005c620000b060201b60201c565b620000b860201b60201c565b80600160006101000a81548173ffffffffffffffffffffffffffffffffffffffff021916908373ffffffffffffffffffffffffffffffffffffffff160217905550506200022c565b600033905090565b60008060009054906101000a900473ffffffffffffffffffffffffffffffffffffffff169050816000806101000a81548173ffffffffffffffffffffffffffffffffffffffff021916908373ffffffffffffffffffffffffffffffffffffffff1602179055508173ffffffffffffffffffffffffffffffffffffffff168173ffffffffffffffffffffffffffffffffffffffff167f8be0079c531659141344cd1fd0a4f28419497f9722a3daafe3b4186f6b6457e060405160405180910390a35050565b600080fd5b600073ffffffffffffffffffffffffffffffffffffffff82169050919050565b6000620001ae8262000181565b9050919050565b6000620001c282620001a1565b9050919050565b620001d481620001b5565b8114620001e057600080fd5b50565b600081519050620001f481620001c9565b92915050565b6000602082840312156200021357620002126200017c565b5b60006200022384828501620001e3565b91505092915050565b612ce4806200023c6000396000f3fe608060405234801561001057600080fd5b50600436106100f55760003560e01c80639b19251a11610097578063d8aed14511610066578063d8aed14514610272578063e1ec3c681461028e578063e43252d7146102c4578063f2fde38b146102e0576100f5565b80639b19251a146101d6578063b7b65f3714610206578063beabacc814610224578063d559515714610240576100f5565b806389ba7c25116100d357806389ba7c25146101645780638ab1d681146101805780638da5cb5b1461019c5780638e87e4d6146101ba576100f5565b80633af32abf146100fa5780636d1649041461012a578063715018a61461015a575b600080fd5b610114600480360381019061010f9190611c1d565b6102fc565b6040516101219190611c65565b60405180910390f35b610144600480360381019061013f9190611c80565b610352565b6040516101519190611c65565b60405180910390f35b6101626103f5565b005b61017e60048036038101906101799190611e4f565b61047d565b005b61019a60048036038101906101959190611c1d565b610a78565b005b6101a4610b92565b6040516101b19190611ef5565b60405180910390f35b6101d460048036038101906101cf9190611f10565b610bbb565b005b6101f060048036038101906101eb9190611c1d565b610e94565b6040516101fd9190611c65565b60405180910390f35b61020e610eb4565b60405161021b9190611faf565b60405180910390f35b61023e60048036038101906102399190611fca565b610eda565b005b61025a6004803603810190610255919061201d565b61104f565b60405161026993929190612059565b60405180910390f35b61028c60048036038101906102879190611f10565b6111f3565b005b6102a860048036038101906102a3919061201d565b6112d8565b6040516102bb9796959493929190612090565b60405180910390f35b6102de60048036038101906102d99190611c1d565b61135a565b005b6102fa60048036038101906102f59190611c1d565b611474565b005b6000600460008373ffffffffffffffffffffffffffffffffffffffff1673ffffffffffffffffffffffffffffffffffffffff16815260200190815260200160002060009054906101000a900460ff169050919050565b600080600660008573ffffffffffffffffffffffffffffffffffffffff1673ffffffffffffffffffffffffffffffffffffffff16815260200190815260200160002060008473ffffffffffffffffffffffffffffffffffffffff1673ffffffffffffffffffffffffffffffffffffffff16815260200190815260200160002054905060006103df8261104f565b9050508091505060008114159250505092915050565b6103fd61156b565b73ffffffffffffffffffffffffffffffffffffffff1661041b610b92565b73ffffffffffffffffffffffffffffffffffffffff1614610471576040517f08c379a00000000000000000000000000000000000000000000000000000000081526004016104689061215c565b60405180910390fd5b61047b6000611573565b565b610486336102fc565b6104c5576040517f08c379a00000000000000000000000000000000000000000000000000000000081526004016104bc906121c8565b60405180910390fd5b8273ffffffffffffffffffffffffffffffffffffffff163373ffffffffffffffffffffffffffffffffffffffff1614610533576040517f08c379a000000000000000000000000000000000000000000000000000000000815260040161052a90612234565b60405180910390fd5b600073ffffffffffffffffffffffffffffffffffffffff168473ffffffffffffffffffffffffffffffffffffffff16036105a2576040517f08c379a0000000000000000000000000000000000000000000000000000000008152600401610599906122a0565b60405180910390fd5b600082116105e5576040517f08c379a00000000000000000000000000000000000000000000000000000000081526004016105dc9061230c565b60405180910390fd5b60008111610628576040517f08c379a000000000000000000000000000000000000000000000000000000000815260040161061f90612378565b60405180910390fd5b600254811061066c576040517f08c379a0000000000000000000000000000000000000000000000000000000008152600401610663906123e4565b60405180910390fd5b60008551116106b0576040517f08c379a00000000000000000000000000000000000000000000000000000000081526004016106a790612450565b60405180910390fd5b60005b85518110156107bc57600073ffffffffffffffffffffffffffffffffffffffff168682815181106106e7576106e6612470565b5b602002602001015173ffffffffffffffffffffffffffffffffffffffff1603610745576040517f08c379a000000000000000000000000000000000000000000000000000000000815260040161073c906124eb565b60405180910390fd5b6107698587838151811061075c5761075b612470565b5b6020026020010151610352565b156107a9576040517f08c379a00000000000000000000000000000000000000000000000000000000081526004016107a090612557565b60405180910390fd5b80806107b4906125a6565b9150506106b3565b50600360008154809291906107d0906125a6565b9190505550600060025482846107e691906125ee565b6107f09190612677565b90506040518060e001604052808573ffffffffffffffffffffffffffffffffffffffff1681526020018673ffffffffffffffffffffffffffffffffffffffff168152602001848152602001828152602001838152602001600081526020014281525060056000600354815260200190815260200160002060008201518160000160006101000a81548173ffffffffffffffffffffffffffffffffffffffff021916908373ffffffffffffffffffffffffffffffffffffffff16021790555060208201518160010160006101000a81548173ffffffffffffffffffffffffffffffffffffffff021916908373ffffffffffffffffffffffffffffffffffffffff16021790555060408201518160020155606082015181600301556080820151816004015560a0820151816005015560c0820151816006015590505060005b86518110156109e657600354600660008873ffffffffffffffffffffffffffffffffffffffff1673ffffffffffffffffffffffffffffffffffffffff168152602001908152602001600020600089848151811061098d5761098c612470565b5b602002602001015173ffffffffffffffffffffffffffffffffffffffff1673ffffffffffffffffffffffffffffffffffffffff1681526020019081526020016000208190555080806109de906125a6565b91505061092d565b50610a36338685600160009054906101000a900473ffffffffffffffffffffffffffffffffffffffff1673ffffffffffffffffffffffffffffffffffffffff16611637909392919063ffffffff16565b6003547f3c15d6a7ffc965a63c65f0657a9fb1ce476c025f8e7affb2fcb35be15e3d097c87604051610a689190612766565b60405180910390a2505050505050565b610a8061156b565b73ffffffffffffffffffffffffffffffffffffffff16610a9e610b92565b73ffffffffffffffffffffffffffffffffffffffff1614610af4576040517f08c379a0000000000000000000000000000000000000000000000000000000008152600401610aeb9061215c565b60405180910390fd5b6000600460008373ffffffffffffffffffffffffffffffffffffffff1673ffffffffffffffffffffffffffffffffffffffff16815260200190815260200160002060006101000a81548160ff0219169083151502179055508073ffffffffffffffffffffffffffffffffffffffff167fcdd2e9b91a56913d370075169cefa1602ba36be5301664f752192bb1709df75760405160405180910390a250565b60008060009054906101000a900473ffffffffffffffffffffffffffffffffffffffff16905090565b610bc4336102fc565b610c03576040517f08c379a0000000000000000000000000000000000000000000000000000000008152600401610bfa906121c8565b60405180910390fd5b6005600083815260200190815260200160002060000160009054906101000a900473ffffffffffffffffffffffffffffffffffffffff1673ffffffffffffffffffffffffffffffffffffffff163373ffffffffffffffffffffffffffffffffffffffff1614610ca7576040517f08c379a0000000000000000000000000000000000000000000000000000000008152600401610c9e90612234565b60405180910390fd5b600073ffffffffffffffffffffffffffffffffffffffff166005600084815260200190815260200160002060010160009054906101000a900473ffffffffffffffffffffffffffffffffffffffff1673ffffffffffffffffffffffffffffffffffffffff1603610d4c576040517f08c379a0000000000000000000000000000000000000000000000000000000008152600401610d43906127d4565b60405180910390fd5b6000610d578361104f565b909150905080915050610de5336005600086815260200190815260200160002060010160009054906101000a900473ffffffffffffffffffffffffffffffffffffffff1684600160009054906101000a900473ffffffffffffffffffffffffffffffffffffffff1673ffffffffffffffffffffffffffffffffffffffff16611637909392919063ffffffff16565b816005600085815260200190815260200160002060020154610e0791906127f4565b6005600085815260200190815260200160002060020181905550806005600085815260200190815260200160002060030181905550426005600085815260200190815260200160002060060181905550827fd2c2790e50d0266783c28abea340c63ca9557915eacf35c2bd63c03a7b06826e83604051610e87919061284a565b60405180910390a2505050565b60046020528060005260406000206000915054906101000a900460ff1681565b600160009054906101000a900473ffffffffffffffffffffffffffffffffffffffff1681565b6000600660008473ffffffffffffffffffffffffffffffffffffffff1673ffffffffffffffffffffffffffffffffffffffff16815260200190815260200160002060008573ffffffffffffffffffffffffffffffffffffffff1673ffffffffffffffffffffffffffffffffffffffff1681526020019081526020016000205490506000610f668261104f565b9050508091505060008103610fcb57610fc4338585600160009054906101000a900473ffffffffffffffffffffffffffffffffffffffff1673ffffffffffffffffffffffffffffffffffffffff16611637909392919063ffffffff16565b505061104a565b8083111561103c5761102d33858386610fe49190612865565b600160009054906101000a900473ffffffffffffffffffffffffffffffffffffffff1673ffffffffffffffffffffffffffffffffffffffff16611637909392919063ffffffff16565b61103782826111f3565b611047565b61104682846111f3565b5b50505b505050565b600080600080840361106b5760008060009250925092506111ec565b6000600560008681526020019081526020016000206040518060e00160405290816000820160009054906101000a900473ffffffffffffffffffffffffffffffffffffffff1673ffffffffffffffffffffffffffffffffffffffff1673ffffffffffffffffffffffffffffffffffffffff1681526020016001820160009054906101000a900473ffffffffffffffffffffffffffffffffffffffff1673ffffffffffffffffffffffffffffffffffffffff1673ffffffffffffffffffffffffffffffffffffffff1681526020016002820154815260200160038201548152602001600482015481526020016005820154815260200160068201548152505090506000620151808260c00151426111819190612865565b61118b9190612677565b90506000826060015160025483856080015186604001516111ac91906125ee565b6111b691906125ee565b6111c09190612677565b6111ca91906127f4565b90508083604001516111dc91906127f4565b8360400151829550955095505050505b9193909250565b600073ffffffffffffffffffffffffffffffffffffffff166005600084815260200190815260200160002060010160009054906101000a900473ffffffffffffffffffffffffffffffffffffffff1673ffffffffffffffffffffffffffffffffffffffff1603611298576040517f08c379a000000000000000000000000000000000000000000000000000000000815260040161128f906128e5565b60405180910390fd5b6000806112a48461104f565b90508092508193505050818311156112c6576112c18483836116c0565b6112d2565b6112d18484836116c0565b5b50505050565b60056020528060005260406000206000915090508060000160009054906101000a900473ffffffffffffffffffffffffffffffffffffffff16908060010160009054906101000a900473ffffffffffffffffffffffffffffffffffffffff16908060020154908060030154908060040154908060050154908060060154905087565b61136261156b565b73ffffffffffffffffffffffffffffffffffffffff16611380610b92565b73ffffffffffffffffffffffffffffffffffffffff16146113d6576040517f08c379a00000000000000000000000000000000000000000000000000000000081526004016113cd9061215c565b60405180910390fd5b6001600460008373ffffffffffffffffffffffffffffffffffffffff1673ffffffffffffffffffffffffffffffffffffffff16815260200190815260200160002060006101000a81548160ff0219169083151502179055508073ffffffffffffffffffffffffffffffffffffffff167fa850ae9193f515cbae8d35e8925bd2be26627fc91bce650b8652ed254e9cab0360405160405180910390a250565b61147c61156b565b73ffffffffffffffffffffffffffffffffffffffff1661149a610b92565b73ffffffffffffffffffffffffffffffffffffffff16146114f0576040517f08c379a00000000000000000000000000000000000000000000000000000000081526004016114e79061215c565b60405180910390fd5b600073ffffffffffffffffffffffffffffffffffffffff168173ffffffffffffffffffffffffffffffffffffffff160361155f576040517f08c379a000000000000000000000000000000000000000000000000000000000815260040161155690612977565b60405180910390fd5b61156881611573565b50565b600033905090565b60008060009054906101000a900473ffffffffffffffffffffffffffffffffffffffff169050816000806101000a81548173ffffffffffffffffffffffffffffffffffffffff021916908373ffffffffffffffffffffffffffffffffffffffff1602179055508173ffffffffffffffffffffffffffffffffffffffff168173ffffffffffffffffffffffffffffffffffffffff167f8be0079c531659141344cd1fd0a4f28419497f9722a3daafe3b4186f6b6457e060405160405180910390a35050565b6116ba846323b872dd60e01b85858560405160240161165893929190612997565b604051602081830303815290604052907bffffffffffffffffffffffffffffffffffffffffffffffffffffffff19166020820180517bffffffffffffffffffffffffffffffffffffffffffffffffffffffff838183161783525050505061192e565b50505050565b611745336005600086815260200190815260200160002060000160009054906101000a900473ffffffffffffffffffffffffffffffffffffffff1684600160009054906101000a900473ffffffffffffffffffffffffffffffffffffffff1673ffffffffffffffffffffffffffffffffffffffff16611637909392919063ffffffff16565b8082116117a45781816117589190612865565b60056000858152602001908152602001600020600301819055508160056000858152602001908152602001600020600501600082825461179891906127f4565b92505081905550611826565b6000600560008581526020019081526020016000206003018190555080826117cc9190612865565b6005600085815260200190815260200160002060020160008282546117f19190612865565b925050819055508060056000858152602001908152602001600020600501600082825461181e91906127f4565b925050819055505b60006005600085815260200190815260200160002060020154036118d55760056000848152602001908152602001600020600080820160006101000a81549073ffffffffffffffffffffffffffffffffffffffff02191690556001820160006101000a81549073ffffffffffffffffffffffffffffffffffffffff02191690556002820160009055600382016000905560048201600090556005820160009055600682016000905550506118f1565b4260056000858152602001908152602001600020600601819055505b827f2c9d9cc70928793d02c32c3d61239600059608e1dc2f6ed832bef97ef8a5982683604051611921919061284a565b60405180910390a2505050565b6000611990826040518060400160405280602081526020017f5361666545524332303a206c6f772d6c6576656c2063616c6c206661696c65648152508573ffffffffffffffffffffffffffffffffffffffff166119f59092919063ffffffff16565b90506000815111156119f057808060200190518101906119b091906129fa565b6119ef576040517f08c379a00000000000000000000000000000000000000000000000000000000081526004016119e690612a99565b60405180910390fd5b5b505050565b6060611a048484600085611a0d565b90509392505050565b606082471015611a52576040517f08c379a0000000000000000000000000000000000000000000000000000000008152600401611a4990612b2b565b60405180910390fd5b611a5b85611b21565b611a9a576040517f08c379a0000000000000000000000000000000000000000000000000000000008152600401611a9190612b97565b60405180910390fd5b6000808673ffffffffffffffffffffffffffffffffffffffff168587604051611ac39190612c31565b60006040518083038185875af1925050503d8060008114611b00576040519150601f19603f3d011682016040523d82523d6000602084013e611b05565b606091505b5091509150611b15828286611b44565b92505050949350505050565b6000808273ffffffffffffffffffffffffffffffffffffffff163b119050919050565b60608315611b5457829050611ba4565b600083511115611b675782518084602001fd5b816040517f08c379a0000000000000000000000000000000000000000000000000000000008152600401611b9b9190612c8c565b60405180910390fd5b9392505050565b6000604051905090565b600080fd5b600080fd5b600073ffffffffffffffffffffffffffffffffffffffff82169050919050565b6000611bea82611bbf565b9050919050565b611bfa81611bdf565b8114611c0557600080fd5b50565b600081359050611c1781611bf1565b92915050565b600060208284031215611c3357611c32611bb5565b5b6000611c4184828501611c08565b91505092915050565b60008115159050919050565b611c5f81611c4a565b82525050565b6000602082019050611c7a6000830184611c56565b92915050565b60008060408385031215611c9757611c96611bb5565b5b6000611ca585828601611c08565b9250506020611cb685828601611c08565b9150509250929050565b600080fd5b6000601f19601f8301169050919050565b7f4e487b7100000000000000000000000000000000000000000000000000000000600052604160045260246000fd5b611d0e82611cc5565b810181811067ffffffffffffffff82111715611d2d57611d2c611cd6565b5b80604052505050565b6000611d40611bab565b9050611d4c8282611d05565b919050565b600067ffffffffffffffff821115611d6c57611d6b611cd6565b5b602082029050602081019050919050565b600080fd5b6000611d95611d9084611d51565b611d36565b90508083825260208201905060208402830185811115611db857611db7611d7d565b5b835b81811015611de15780611dcd8882611c08565b845260208401935050602081019050611dba565b5050509392505050565b600082601f830112611e0057611dff611cc0565b5b8135611e10848260208601611d82565b91505092915050565b6000819050919050565b611e2c81611e19565b8114611e3757600080fd5b50565b600081359050611e4981611e23565b92915050565b600080600080600060a08688031215611e6b57611e6a611bb5565b5b600086013567ffffffffffffffff811115611e8957611e88611bba565b5b611e9588828901611deb565b9550506020611ea688828901611c08565b9450506040611eb788828901611c08565b9350506060611ec888828901611e3a565b9250506080611ed988828901611e3a565b9150509295509295909350565b611eef81611bdf565b82525050565b6000602082019050611f0a6000830184611ee6565b92915050565b60008060408385031215611f2757611f26611bb5565b5b6000611f3585828601611e3a565b9250506020611f4685828601611e3a565b9150509250929050565b6000819050919050565b6000611f75611f70611f6b84611bbf565b611f50565b611bbf565b9050919050565b6000611f8782611f5a565b9050919050565b6000611f9982611f7c565b9050919050565b611fa981611f8e565b82525050565b6000602082019050611fc46000830184611fa0565b92915050565b600080600060608486031215611fe357611fe2611bb5565b5b6000611ff186828701611c08565b935050602061200286828701611c08565b925050604061201386828701611e3a565b9150509250925092565b60006020828403121561203357612032611bb5565b5b600061204184828501611e3a565b91505092915050565b61205381611e19565b82525050565b600060608201905061206e600083018661204a565b61207b602083018561204a565b612088604083018461204a565b949350505050565b600060e0820190506120a5600083018a611ee6565b6120b26020830189611ee6565b6120bf604083018861204a565b6120cc606083018761204a565b6120d9608083018661204a565b6120e660a083018561204a565b6120f360c083018461204a565b98975050505050505050565b600082825260208201905092915050565b7f4f776e61626c653a2063616c6c6572206973206e6f7420746865206f776e6572600082015250565b60006121466020836120ff565b915061215182612110565b602082019050919050565b6000602082019050818103600083015261217581612139565b9050919050565b7f53656e646572206d7573742062652077686974656c6973746564000000000000600082015250565b60006121b2601a836120ff565b91506121bd8261217c565b602082019050919050565b600060208201905081810360008301526121e1816121a5565b9050919050565b7f4f6e6c79206c656e6465722063616e20617070726f7665000000000000000000600082015250565b600061221e6017836120ff565b9150612229826121e8565b602082019050919050565b6000602082019050818103600083015261224d81612211565b9050919050565b7f5472616e7366657220746f20746865207a65726f206164647265737300000000600082015250565b600061228a601c836120ff565b915061229582612254565b602082019050919050565b600060208201905081810360008301526122b98161227d565b9050919050565b7f416d6f756e74206973207a65726f000000000000000000000000000000000000600082015250565b60006122f6600e836120ff565b9150612301826122c0565b602082019050919050565b60006020820190508181036000830152612325816122e9565b9050919050565b7f496e7465726573742072617465206973207a65726f0000000000000000000000600082015250565b60006123626015836120ff565b915061236d8261232c565b602082019050919050565b6000602082019050818103600083015261239181612355565b9050919050565b7f496e746572657374207261746520697320746f6f206269670000000000000000600082015250565b60006123ce6018836120ff565b91506123d982612398565b602082019050919050565b600060208201905081810360008301526123fd816123c1565b9050919050565b7f4e6f2061677265656d656e747300000000000000000000000000000000000000600082015250565b600061243a600d836120ff565b915061244582612404565b602082019050919050565b600060208201905081810360008301526124698161242d565b9050919050565b7f4e487b7100000000000000000000000000000000000000000000000000000000600052603260045260246000fd5b7f496e76616c69642061677265656d656e74206164647265737300000000000000600082015250565b60006124d56019836120ff565b91506124e08261249f565b602082019050919050565b60006020820190508181036000830152612504816124c8565b9050919050565b7f5265706179206669727374000000000000000000000000000000000000000000600082015250565b6000612541600b836120ff565b915061254c8261250b565b602082019050919050565b6000602082019050818103600083015261257081612534565b9050919050565b7f4e487b7100000000000000000000000000000000000000000000000000000000600052601160045260246000fd5b60006125b182611e19565b91507fffffffffffffffffffffffffffffffffffffffffffffffffffffffffffffffff82036125e3576125e2612577565b5b600182019050919050565b60006125f982611e19565b915061260483611e19565b9250817fffffffffffffffffffffffffffffffffffffffffffffffffffffffffffffffff048311821515161561263d5761263c612577565b5b828202905092915050565b7f4e487b7100000000000000000000000000000000000000000000000000000000600052601260045260246000fd5b600061268282611e19565b915061268d83611e19565b92508261269d5761269c612648565b5b828204905092915050565b600081519050919050565b600082825260208201905092915050565b6000819050602082019050919050565b6126dd81611bdf565b82525050565b60006126ef83836126d4565b60208301905092915050565b6000602082019050919050565b6000612713826126a8565b61271d81856126b3565b9350612728836126c4565b8060005b8381101561275957815161274088826126e3565b975061274b836126fb565b92505060018101905061272c565b5085935050505092915050565b600060208201905081810360008301526127808184612708565b905092915050565b7f4c6f616e20646f6573206e6f7420657869737473000000000000000000000000600082015250565b60006127be6014836120ff565b91506127c982612788565b602082019050919050565b600060208201905081810360008301526127ed816127b1565b9050919050565b60006127ff82611e19565b915061280a83611e19565b9250827fffffffffffffffffffffffffffffffffffffffffffffffffffffffffffffffff0382111561283f5761283e612577565b5b828201905092915050565b600060208201905061285f600083018461204a565b92915050565b600061287082611e19565b915061287b83611e19565b92508282101561288e5761288d612577565b5b828203905092915050565b7f4c6f616e20646f6573206e6f7420657869737400000000000000000000000000600082015250565b60006128cf6013836120ff565b91506128da82612899565b602082019050919050565b600060208201905081810360008301526128fe816128c2565b9050919050565b7f4f776e61626c653a206e6577206f776e657220697320746865207a65726f206160008201527f6464726573730000000000000000000000000000000000000000000000000000602082015250565b60006129616026836120ff565b915061296c82612905565b604082019050919050565b6000602082019050818103600083015261299081612954565b9050919050565b60006060820190506129ac6000830186611ee6565b6129b96020830185611ee6565b6129c6604083018461204a565b949350505050565b6129d781611c4a565b81146129e257600080fd5b50565b6000815190506129f4816129ce565b92915050565b600060208284031215612a1057612a0f611bb5565b5b6000612a1e848285016129e5565b91505092915050565b7f5361666545524332303a204552433230206f7065726174696f6e20646964206e60008201527f6f74207375636365656400000000000000000000000000000000000000000000602082015250565b6000612a83602a836120ff565b9150612a8e82612a27565b604082019050919050565b60006020820190508181036000830152612ab281612a76565b9050919050565b7f416464726573733a20696e73756666696369656e742062616c616e636520666f60008201527f722063616c6c0000000000000000000000000000000000000000000000000000602082015250565b6000612b156026836120ff565b9150612b2082612ab9565b604082019050919050565b60006020820190508181036000830152612b4481612b08565b9050919050565b7f416464726573733a2063616c6c20746f206e6f6e2d636f6e7472616374000000600082015250565b6000612b81601d836120ff565b9150612b8c82612b4b565b602082019050919050565b60006020820190508181036000830152612bb081612b74565b9050919050565b600081519050919050565b600081905092915050565b60005b83811015612beb578082015181840152602081019050612bd0565b83811115612bfa576000848401525b50505050565b6000612c0b82612bb7565b612c158185612bc2565b9350612c25818560208601612bcd565b80840191505092915050565b6000612c3d8284612c00565b915081905092915050565b600081519050919050565b6000612c5e82612c48565b612c6881856120ff565b9350612c78818560208601612bcd565b612c8181611cc5565b840191505092915050565b60006020820190508181036000830152612ca68184612c53565b90509291505056fea2646970667358221220c0b49eaf741e43d7fec062831888d8c7ec69aa6c127da068da64f31b39d646ae64736f6c634300080d0033",
  "linkReferences": {},
  "deployedLinkReferences": {}
}